{"abi":[{"type":"constructor","inputs":[],"stateMutability":"nonpayable"},{"type":"function","name":"addXP","inputs":[{"name":"numericId","type":"uint256","internalType":"uint256"},{"name":"rewardUsd","type":"uint256","internalType":"uint256"},{"name":"ratingX100","type":"uint32","internalType":"uint32"},{"name":"isLate","type":"bool","internalType":"bool"},{"name":"disputeLost","type":"bool","internalType":"bool"},{"name":"disputeOpened","type":"bool","internalType":"bool"}],"outputs":[],"stateMutability":"nonpayable"},{"type":"function","name":"adminUpdateMetadata","inputs":[{"name":"numericId","type":"uint256","internalType":"uint256"},{"name":"metadataURI","type":"string","internalType":"string"}],"outputs":[],"stateMutability":"nonpayable"},{"type":"function","name":"agentCount","inputs":[],"outputs":[{"name":"","type":"uint256","internalType":"uint256"}],"stateMutability":"view"},{"type":"function","name":"getAgent","inputs":[{"name":"numericId","type":"uint256","internalType":"uint256"}],"outputs":[{"name":"","type":"tuple","internalType":"struct AgentRegistry.Agent","components":[{"name":"wallet","type":"address","internalType":"address"},{"name":"agentId","type":"bytes32","internalType":"bytes32"},{"name":"metadataURI","type":"string","internalType":"string"},{"name":"webhookUrl","type":"string","internalType":"string"},{"name":"registeredAt","type":"uint64","internalType":"uint64"},{"name":"status","type":"uint8","internalType":"enum AgentRegistry.AgentStatus"},{"name":"score","type":"uint256","internalType":"uint256"},{"name":"jobsCompleted","type":"uint32","internalType":"uint32"},{"name":"rating","type":"uint32","internalType":"uint32"},{"name":"tier","type":"uint8","internalType":"enum AgentRegistry.Tier"}]}],"stateMutability":"view"},{"type":"function","name":"getAgentIdByAgentHash","inputs":[{"name":"agentId","type":"bytes32","internalType":"bytes32"}],"outputs":[{"name":"","type":"uint256","internalType":"uint256"}],"stateMutability":"view"},{"type":"function","name":"getAgentIdByWallet","inputs":[{"name":"wallet","type":"address","internalType":"address"}],"outputs":[{"name":"","type":"uint256","internalType":"uint256"}],"stateMutability":"view"},{"type":"function","name":"getAgentProfile","inputs":[{"name":"numericId","type":"uint256","internalType":"uint256"}],"outputs":[{"name":"tier","type":"uint8","internalType":"enum AgentRegistry.Tier"},{"name":"jobsCompleted","type":"uint32","internalType":"uint32"},{"name":"rating","type":"uint32","internalType":"uint32"},{"name":"score","type":"uint256","internalType":"uint256"},{"name":"status","type":"uint8","internalType":"enum AgentRegistry.AgentStatus"}],"stateMutability":"view"},{"type":"function","name":"isActive","inputs":[{"name":"numericId","type":"uint256","internalType":"uint256"}],"outputs":[{"name":"","type":"bool","internalType":"bool"}],"stateMutability":"view"},{"type":"function","name":"meritSBT","inputs":[],"outputs":[{"name":"","type":"address","internalType":"contract MeritSBT"}],"stateMutability":"view"},{"type":"function","name":"mintVerifierSBT","inputs":[{"name":"numericId","type":"uint256","internalType":"uint256"}],"outputs":[],"stateMutability":"nonpayable"},{"type":"function","name":"owner","inputs":[],"outputs":[{"name":"","type":"address","internalType":"address"}],"stateMutability":"view"},{"type":"function","name":"reactivateAgent","inputs":[{"name":"numericId","type":"uint256","internalType":"uint256"}],"outputs":[],"stateMutability":"nonpayable"},{"type":"function","name":"recordJobCompleted","inputs":[{"name":"numericId","type":"uint256","internalType":"uint256"},{"name":"ratingX100","type":"uint32","internalType":"uint32"}],"outputs":[],"stateMutability":"nonpayable"},{"type":"function","name":"registerAgent","inputs":[{"name":"wallet","type":"address","internalType":"address"},{"name":"agentId","type":"bytes32","internalType":"bytes32"},{"name":"metadataURI","type":"string","internalType":"string"},{"name":"webhookUrl","type":"string","internalType":"string"}],"outputs":[{"name":"numericId","type":"uint256","internalType":"uint256"}],"stateMutability":"nonpayable"},{"type":"function","name":"setMeritSBT","inputs":[{"name":"_meritSBT","type":"address","internalType":"address"}],"outputs":[],"stateMutability":"nonpayable"},{"type":"function","name":"suspendAgent","inputs":[{"name":"numericId","type":"uint256","internalType":"uint256"}],"outputs":[],"stateMutability":"nonpayable"},{"type":"function","name":"updateMetadata","inputs":[{"name":"numericId","type":"uint256","internalType":"uint256"},{"name":"metadataURI","type":"string","internalType":"string"}],"outputs":[],"stateMutability":"nonpayable"},{"type":"function","name":"updateScore","inputs":[{"name":"numericId","type":"uint256","internalType":"uint256"},{"name":"newScore","type":"uint256","internalType":"uint256"}],"outputs":[],"stateMutability":"nonpayable"},{"type":"function","name":"updateWebhook","inputs":[{"name":"numericId","type":"uint256","internalType":"uint256"},{"name":"webhookUrl","type":"string","internalType":"string"}],"outputs":[],"stateMutability":"nonpayable"},{"type":"event","name":"AgentReactivated","inputs":[{"name":"numericId","type":"uint256","indexed":true,"internalType":"uint256"}],"anonymous":false},{"type":"event","name":"AgentRegistered","inputs":[{"name":"numericId","type":"uint256","indexed":true,"internalType":"uint256"},{"name":"wallet","type":"address","indexed":true,"internalType":"address"},{"name":"agentId","type":"bytes32","indexed":true,"internalType":"bytes32"}],"anonymous":false},{"type":"event","name":"AgentSuspended","inputs":[{"name":"numericId","type":"uint256","indexed":true,"internalType":"uint256"}],"anonymous":false},{"type":"event","name":"JobCompleted","inputs":[{"name":"numericId","type":"uint256","indexed":true,"internalType":"uint256"},{"name":"newTotal","type":"uint32","indexed":false,"internalType":"uint32"},{"name":"newRating","type":"uint32","indexed":false,"internalType":"uint32"}],"anonymous":false},{"type":"event","name":"MeritSBTSet","inputs":[{"name":"meritSBT","type":"address","indexed":false,"internalType":"address"}],"anonymous":false},{"type":"event","name":"MetadataUpdated","inputs":[{"name":"numericId","type":"uint256","indexed":true,"internalType":"uint256"},{"name":"metadataURI","type":"string","indexed":false,"internalType":"string"}],"anonymous":false},{"type":"event","name":"ScoreUpdated","inputs":[{"name":"numericId","type":"uint256","indexed":true,"internalType":"uint256"},{"name":"oldScore","type":"uint256","indexed":false,"internalType":"uint256"},{"name":"newScore","type":"uint256","indexed":false,"internalType":"uint256"}],"anonymous":false},{"type":"event","name":"TierUpgraded","inputs":[{"name":"numericId","type":"uint256","indexed":true,"internalType":"uint256"},{"name":"newTier","type":"uint8","indexed":false,"internalType":"enum AgentRegistry.Tier"}],"anonymous":false},{"type":"event","name":"VerifierSBTMinted","inputs":[{"name":"numericId","type":"uint256","indexed":true,"internalType":"uint256"},{"name":"wallet","type":"address","indexed":true,"internalType":"address"},{"name":"tokenId","type":"uint256","indexed":false,"internalType":"uint256"}],"anonymous":false},{"type":"error","name":"AgentNotFound","inputs":[]},{"type":"error","name":"AlreadyRegistered","inputs":[]},{"type":"error","name":"InvalidAgentId","inputs":[]},{"type":"error","name":"MeritSBTNotSet","inputs":[]},{"type":"error","name":"NotOwner","inputs":[]},{"type":"error","name":"NotTier1","inputs":[]},{"type":"error","name":"ZeroAddress","inputs":[]}],"bytecode":{"object":"0x608080604052346026575f80546001600160a01b0319163317905561194d908161002b8239f35b5f80fdfe60806040526004361015610011575f80fd5b5f5f3560e01c80630859c59b146112cf57806309218e7b146111c05780631e5082381461118757806329b3c2881461115e5780632d32a054146110445780632de5aaf714610e6c578063489c950914610c3957806353c8388e14610b455780637971939a14610acd578063799229aa1461097c57806382afd23b1461093a5780638465dcef146105085780638da5cb5b146104e1578063a7c009441461037f578063aac596bc14610303578063b7dc1284146102e5578063c4bfe358146102bb578063f098a7ae146101785763fd610317146100eb575f80fd5b34610175576020366003190112610175578054600435906001600160a01b031633036101665761011a8161182e565b808252600360205260408220600401805460ff60401b1916680100000000000000001790557f7cce21c1f4552995dccace889e9ad45febf59c654d3fd1d7ab0457fa1439aa2c8280a280f35b6330cd747160e01b8252600482fd5b80fd5b5034610175576020366003190112610175576004356101968161182e565b8152600360205261012060408220604051906101b1826116c5565b80546001600160a01b03168252600181015460208301526101d460028201611716565b60408301526101e560038201611716565b60608301526004810154916001600160401b038316608082015261021360ff60a083019460401c16846117b6565b63ffffffff80600660058501549460c0850195865201549260e0810190828516825260ff610100820195848160201c16875260401c16978891610255836115c4565b0152610260876115c4565b5116915116915192519460038610156102a757509160a094916102a5936040519561028a816115c4565b865260208601526040850152606084015260808301906115a3565bf35b634e487b7160e01b81526021600452602490fd5b50346101755760203660031901126101755760406020916004358152600583522054604051908152f35b50346101755780600319360112610175576020600254604051908152f35b5034610175576020366003190112610175578054600435906001600160a01b03163303610166576103338161182e565b808252600360205260408220600401805460ff60401b1916680200000000000000001790557f7a517cb06849768fd8a97bc5f1be9c61e2f342a60cb6e6eaf64aaf11978a172a8280a280f35b5034610175576020366003190112610175578054600435906001600160a01b03163303610166576103af8161182e565b6001546001600160a01b03169081156104d25780835260036020526040832060ff600682015460401c166103e2816115c4565b600181106104c3578154602091906044906001600160a01b0316610405836115c4565b61040e836115c4565b8760405197889485936308e4ec1f60e21b8552600485015261042f816115c4565b60248401525af19283156104b857849361047f575b50546040519283526001600160a01b0316917f515327ed5f4714dc8674121366e9ed6a3d329acde1f56072c1cb2f65c76d495890602090a380f35b9092506020813d6020116104b0575b8161049b602093836116f5565b810103126104ac5751916020610444565b8380fd5b3d915061048e565b6040513d86823e3d90fd5b6387267a0560e01b8552600485fd5b63273d6bb760e11b8352600483fd5b5034610175578060031936011261017557546040516001600160a01b039091168152602090f35b503461017557608036600319011261017557610522611509565b90602435916044356001600160401b0381116109365761054690369060040161151f565b6064949194356001600160401b0381116109325761056890369060040161151f565b90936001600160a01b03169182156109235783156109145782865260046020526040862054610905578386526005602052604086205461090557600254965f1988146108f1576105ec600188990196876002556105dd604051936105cb856116c5565b878552602085019589875236916117e9565b946040840195865236916117e9565b60608201908152608082016001600160401b034216815260a083016001815260c08401928a845260e08501968b88526101008601968c885261012087019d8e528b8d52600360205260408d209660018060a01b039051166bffffffffffffffffffffffff60a01b88541617875551600187015560028601905180516001600160401b0381116108dd5761068981610683855461162f565b85611667565b60208e6001601f84111461087b57906106b693836107fa575b50508160011b915f199060031b1c19161790565b90555b60038501905180516001600160401b038111610867576106dd81610683855461162f565b60208d601f8311600114610805579061070993836107fa5750508160011b915f199060031b1c19161790565b90555b6001600160401b03600485019251166001600160401b03198354161782555160038110156107e657815460ff60401b191660409190911b60ff60401b1617905551600582015591516006929092018054915167ffffffffffffffff1990921663ffffffff9390931692909217602091821b67ffffffff0000000016178255956107a09190519061079b826115c4565b61160c565b8084526004855282604085205581845260058552826040852055827f64b2bcb1d1d447eab176eec02936a817f1d7229df42745a482f9a535cd8c13546040519580a48152f35b634e487b7160e01b8a52602160045260248afd5b015190505f806106a2565b9192601f198416858452828420935b81811061084f5750908460019594939210610837575b505050811b01905561070c565b01515f1960f88460031b161c191690555f808061082a565b92936020600181928786015181550195019301610814565b634e487b7160e01b8d52604160045260248dfd5b9192601f198416858452828420935b8181106108c557509084600195949392106108ad575b505050811b0190556106b9565b01515f1960f88460031b161c191690555f80806108a0565b9293602060018192878601518155019501930161088a565b634e487b7160e01b8e52604160045260248efd5b634e487b7160e01b87526011600452602487fd5b630ea075bf60e21b8652600486fd5b63e6394a7760e01b8652600486fd5b63d92e233d60e01b8652600486fd5b8480fd5b8280fd5b5034610175576020366003190112610175576004358152600360205260ff600460408320015460401c169060038210156102a757602082600160405191148152f35b50346101755761098b3661154c565b8354919392916001600160a01b03163303610abe576109a98261182e565b818352600360205260026040842001936001600160401b038211610aaa576109db826109d5875461162f565b87611667565b8394601f8311600114610a3b57610a18838087985f5160206118f85f395f51905f52979891610a30575b508160011b915f199060031b1c19161790565b90555b610a2a604051928392836117c2565b0390a280f35b90508401355f610a05565b80855260208520601f19841696865b888110610a925750845f5160206118f85f395f51905f5296979810610a79575b5050600183811b019055610a1b565b8301355f19600386901b60f8161c191690555f80610a6a565b90916020600181928588013581550193019101610a4a565b634e487b7160e01b84526041600452602484fd5b6330cd747160e01b8352600483fd5b503461017557602036600319011261017557610ae7611509565b81546001600160a01b0316330361016657600180546001600160a01b0319166001600160a01b0390921691821790556040519081527f61f9152a2a03d3944672998d70cb93616a33b97600e8bb34779b240ca5b9de7d90602090a180f35b503461017557610b543661154c565b610b608392949361182e565b818352600360205260408320546001600160a01b03163303610abe57818352600360205260026040842001936001600160401b038211610aaa57610ba8826109d5875461162f565b8394601f8311600114610be457610a18838087985f5160206118f85f395f51905f52979891610a3057508160011b915f199060031b1c19161790565b80855260208520601f19841696865b888110610c215750845f5160206118f85f395f51905f5296979810610a79575050600183811b019055610a1b565b90916020600181928588013581550193019101610bf3565b50346101755760403660031901126101755760043560243563ffffffff8116809103610e685782546001600160a01b03163303610abe57610c798261182e565b81835260036020526040832090600682019063ffffffff82541663ffffffff8114610e5457600163ffffffff91011663ffffffff1983541617825581549063ffffffff8216915f19830163ffffffff8111610e405792610cf563ffffffff93610cf0610cfa948680610d1b99169160201c166115ce565b6115e1565b6115ee565b835467ffffffff000000001916911660201b67ffffffff0000000016178255565b805460ff610d6c600563ffffffff841695877f9c82a2c0ba2e3ed9fc99b66d4970504b5aee703b6f7d573e82b0188035109c42604080518a815263ffffffff8960201c166020820152a2015461189b565b9160401c16809360648110155f14610e0e57505060045b610d8c826115c4565b610d95816115c4565b60ff81811690831610610e065750915b610dae816115c4565b610db7836115c4565b8203610dc1578380f35b81610def7f4d1431e34c288d933eb3a30e883213bfe4e98c589349780871202c7937143e3c9360209361160c565b60405190610dfc816115c4565b8152a25f80808380f35b905091610da5565b60328110610e2057505060035b610d83565b60148110610e315750506002610d83565b600511610e1b57506001610d83565b634e487b7160e01b88526011600452602488fd5b634e487b7160e01b86526011600452602486fd5b5f80fd5b50346101755760203660031901126101755760043581604051610e8e816116c5565b818152816020820152604081016060905260608101606090528160808201528160a08201528160c08201528160e0820152816101008201526101200152610ed48161182e565b8152600360205260409020604051610eeb816116c5565b81546001600160a01b0316815260018201546020820190815291610f1160028201611716565b60408301908152610f2460038301611716565b6060840190815260048301549060808501936001600160401b038316855260a086019260401c60ff16610f5790846117b6565b60058101549060c08701918252600601549260e087019263ffffffff851684526101008801948060201c63ffffffff16865260401c60ff1695610120890196610f9f816115c4565b8752604051998a9960208b52600160a01b6001900390511660208b01525160408a0152516060890161014090526101608901610fda9161157f565b9051888203601f190160808a0152610ff2919061157f565b95516001600160401b031660a08801525160c08701611010916115a3565b5160e08601525163ffffffff166101008501525163ffffffff166101208401525161103a816115c4565b6101408301520390f35b5034610175576110533661154c565b90929161105f8161182e565b808352600360205260408320546001600160a01b03163303610abe578252600360205260036040832001906001600160401b03811161114a576110ac816110a6845461162f565b84611667565b82601f82116001146110ea57819084956110da9495926110df5750508160011b915f199060031b1c19161790565b905580f35b013590505f806106a2565b601f198216948385526020852091855b878110611132575083600195969710611119575b505050811b01905580f35b01355f19600384901b60f8161c191690555f808061110e565b909260206001819286860135815501940191016110fa565b634e487b7160e01b83526041600452602483fd5b50346101755780600319360112610175576001546040516001600160a01b039091168152602090f35b5034610175576020366003190112610175576020906040906001600160a01b036111af611509565b168152600483522054604051908152f35b503461017557604036600319011261017557805460043590602435906001600160a01b03163303610abe5760407fb2383e82269e758b9ec0fc961ac69cecc166570a12068c11b3f9cf29c8de9e88916112188461182e565b8385526003602052600582862001549084865260036020528060058488200155846112428261189b565b818852600360205260ff6006868a200154861c1661125f816115c4565b611268826115c4565b810361127f575b505082519182526020820152a280f35b60207f4d1431e34c288d933eb3a30e883213bfe4e98c589349780871202c7937143e3c91838a52600382526112b9816006898d200161160c565b8651906112c5816115c4565b8152a2845f61126f565b5034610e685760c0366003190112610e68576004356044359163ffffffff8316809303610e685760643592831580158503610e6857608435918215158303610e685760a435908115158203610e68575f546001600160a01b031633036114fa576113388661182e565b855f52600360205260405f209661135060243561185a565b9467016345785d8a000086029580870467016345785d8a0000149015171561143857156113a357505f969450505050505b6006611390600583015461189b565b910160ff815460401c16610dae816115c4565b9496946127106101f483106114e657611388810180911161143857935b6114d3575b6114a7575b60c81015611482575b61144c575b6113e590612710926115ce565b0460058201906113f68183546115e1565b80925581038181116114385760407fb2383e82269e758b9ec0fc961ac69cecc166570a12068c11b3f9cf29c8de9e8891859382519182526020820152a2611381565b634e487b7160e01b5f52601160045260245ffd5b6103e88110611474576103e719810190811161143857612710916113e5915b915091506113d8565b506113e5612710915f61146b565b906109c481106114a0576109c3198101908111611438575b906113d3565b505f61149a565b9161138881106114ca576113871981019081116114385760c8905b9290506113ca565b5060c85f6114c2565b926109c4810180911161143857926113c5565b9361019083106113c057612af894506113c0565b6330cd747160e01b5f5260045ffd5b600435906001600160a01b0382168203610e6857565b9181601f84011215610e68578235916001600160401b038311610e685760208381860195010111610e6857565b906040600319830112610e685760043591602435906001600160401b038211610e685761157b9160040161151f565b9091565b805180835260209291819084018484015e5f828201840152601f01601f1916010190565b9060038210156115b05752565b634e487b7160e01b5f52602160045260245ffd5b600511156115b057565b8181029291811591840414171561143857565b9190820180921161143857565b81156115f8570490565b634e487b7160e01b5f52601260045260245ffd5b90611616816115c4565b60ff60401b82549160401b169060ff60401b1916179055565b90600182811c9216801561165d575b602083101461164957565b634e487b7160e01b5f52602260045260245ffd5b91607f169161163e565b919091601f8311611678575b505050565b81831161168457505050565b5f5260205f206020601f830160051c92106116bd575b81601f9101920160051c03905f5b82811015611673575f828201556001016116a8565b5f915061169a565b61014081019081106001600160401b038211176116e157604052565b634e487b7160e01b5f52604160045260245ffd5b90601f801991011681019081106001600160401b038211176116e157604052565b9060405191825f8254926117298461162f565b80845293600181169081156117945750600114611750575b5061174e925003836116f5565b565b90505f9291925260205f20905f915b81831061177857505090602061174e928201015f611741565b602091935080600191548385890101520191019091849261175f565b90506020925061174e94915060ff191682840152151560051b8201015f611741565b60038210156115b05752565b90918060409360208452816020850152848401375f828201840152601f01601f1916010190565b9291926001600160401b0382116116e15760405191611812601f8201601f1916602001846116f5565b829481845281830111610e68578281602093845f960137010152565b801590811561184e575b5061183f57565b63e93ba22360e01b5f5260045ffd5b9050600254105f611838565b90811561189657600182018083116114385760011c825b83821061187c575050565b90925061188d83610cf081846115ee565b60011c90611871565b5f9150565b69054b40b1f852bda0000081106118b25750600490565b6901b1ae4d6e2ef500000081106118c95750600390565b686c6b935b8bbd40000081106118df5750600290565b681b1ae4d6e2ef500000116118f357600190565b5f9056fe459157ba24c7ab9878b165ef465fa6ae2ab42bcd8445f576be378768b0c47309a2646970667358221220eb29bb390c9c87a7bd9caeb67f92b06d5ee2e74ce3ec8f2efa989cca573bec0664736f6c63430008210033","linkReferences":{}},"methodIdentifiers":{"addXP(uint256,uint256,uint32,bool,bool,bool)":"0859c59b","adminUpdateMetadata(uint256,string)":"799229aa","agentCount()":"b7dc1284","getAgent(uint256)":"2de5aaf7","getAgentIdByAgentHash(bytes32)":"c4bfe358","getAgentIdByWallet(address)":"1e508238","getAgentProfile(uint256)":"f098a7ae","isActive(uint256)":"82afd23b","meritSBT()":"29b3c288","mintVerifierSBT(uint256)":"a7c00944","owner()":"8da5cb5b","reactivateAgent(uint256)":"fd610317","recordJobCompleted(uint256,uint32)":"489c9509","registerAgent(address,bytes32,string,string)":"8465dcef","setMeritSBT(address)":"7971939a","suspendAgent(uint256)":"aac596bc","updateMetadata(uint256,string)":"53c8388e","updateScore(uint256,uint256)":"09218e7b","updateWebhook(uint256,string)":"2d32a054"},"id":69}