{"abi":[{"type":"constructor","inputs":[],"stateMutability":"nonpayable"},{"type":"function","name":"adminUpdateMetadata","inputs":[{"name":"numericId","type":"uint256","internalType":"uint256"},{"name":"metadataURI","type":"string","internalType":"string"}],"outputs":[],"stateMutability":"nonpayable"},{"type":"function","name":"agentCount","inputs":[],"outputs":[{"name":"","type":"uint256","internalType":"uint256"}],"stateMutability":"view"},{"type":"function","name":"getAgent","inputs":[{"name":"numericId","type":"uint256","internalType":"uint256"}],"outputs":[{"name":"","type":"tuple","internalType":"struct AgentRegistry.Agent","components":[{"name":"wallet","type":"address","internalType":"address"},{"name":"agentId","type":"bytes32","internalType":"bytes32"},{"name":"metadataURI","type":"string","internalType":"string"},{"name":"webhookUrl","type":"string","internalType":"string"},{"name":"registeredAt","type":"uint64","internalType":"uint64"},{"name":"status","type":"uint8","internalType":"enum AgentRegistry.AgentStatus"},{"name":"score","type":"uint256","internalType":"uint256"},{"name":"jobsCompleted","type":"uint32","internalType":"uint32"},{"name":"rating","type":"uint32","internalType":"uint32"},{"name":"tier","type":"uint8","internalType":"enum AgentRegistry.Tier"}]}],"stateMutability":"view"},{"type":"function","name":"getAgentIdByAgentHash","inputs":[{"name":"agentId","type":"bytes32","internalType":"bytes32"}],"outputs":[{"name":"","type":"uint256","internalType":"uint256"}],"stateMutability":"view"},{"type":"function","name":"getAgentIdByWallet","inputs":[{"name":"wallet","type":"address","internalType":"address"}],"outputs":[{"name":"","type":"uint256","internalType":"uint256"}],"stateMutability":"view"},{"type":"function","name":"getAgentProfile","inputs":[{"name":"numericId","type":"uint256","internalType":"uint256"}],"outputs":[{"name":"tier","type":"uint8","internalType":"enum AgentRegistry.Tier"},{"name":"jobsCompleted","type":"uint32","internalType":"uint32"},{"name":"rating","type":"uint32","internalType":"uint32"},{"name":"score","type":"uint256","internalType":"uint256"},{"name":"status","type":"uint8","internalType":"enum AgentRegistry.AgentStatus"}],"stateMutability":"view"},{"type":"function","name":"isActive","inputs":[{"name":"numericId","type":"uint256","internalType":"uint256"}],"outputs":[{"name":"","type":"bool","internalType":"bool"}],"stateMutability":"view"},{"type":"function","name":"meritSBT","inputs":[],"outputs":[{"name":"","type":"address","internalType":"contract MeritSBT"}],"stateMutability":"view"},{"type":"function","name":"mintVerifierSBT","inputs":[{"name":"numericId","type":"uint256","internalType":"uint256"}],"outputs":[],"stateMutability":"nonpayable"},{"type":"function","name":"owner","inputs":[],"outputs":[{"name":"","type":"address","internalType":"address"}],"stateMutability":"view"},{"type":"function","name":"reactivateAgent","inputs":[{"name":"numericId","type":"uint256","internalType":"uint256"}],"outputs":[],"stateMutability":"nonpayable"},{"type":"function","name":"recordJobCompleted","inputs":[{"name":"numericId","type":"uint256","internalType":"uint256"},{"name":"ratingX100","type":"uint32","internalType":"uint32"}],"outputs":[],"stateMutability":"nonpayable"},{"type":"function","name":"registerAgent","inputs":[{"name":"wallet","type":"address","internalType":"address"},{"name":"agentId","type":"bytes32","internalType":"bytes32"},{"name":"metadataURI","type":"string","internalType":"string"},{"name":"webhookUrl","type":"string","internalType":"string"}],"outputs":[{"name":"numericId","type":"uint256","internalType":"uint256"}],"stateMutability":"nonpayable"},{"type":"function","name":"setMeritSBT","inputs":[{"name":"_meritSBT","type":"address","internalType":"address"}],"outputs":[],"stateMutability":"nonpayable"},{"type":"function","name":"suspendAgent","inputs":[{"name":"numericId","type":"uint256","internalType":"uint256"}],"outputs":[],"stateMutability":"nonpayable"},{"type":"function","name":"updateMetadata","inputs":[{"name":"numericId","type":"uint256","internalType":"uint256"},{"name":"metadataURI","type":"string","internalType":"string"}],"outputs":[],"stateMutability":"nonpayable"},{"type":"function","name":"updateScore","inputs":[{"name":"numericId","type":"uint256","internalType":"uint256"},{"name":"newScore","type":"uint256","internalType":"uint256"}],"outputs":[],"stateMutability":"nonpayable"},{"type":"function","name":"updateWebhook","inputs":[{"name":"numericId","type":"uint256","internalType":"uint256"},{"name":"webhookUrl","type":"string","internalType":"string"}],"outputs":[],"stateMutability":"nonpayable"},{"type":"event","name":"AgentReactivated","inputs":[{"name":"numericId","type":"uint256","indexed":true,"internalType":"uint256"}],"anonymous":false},{"type":"event","name":"AgentRegistered","inputs":[{"name":"numericId","type":"uint256","indexed":true,"internalType":"uint256"},{"name":"wallet","type":"address","indexed":true,"internalType":"address"},{"name":"agentId","type":"bytes32","indexed":true,"internalType":"bytes32"}],"anonymous":false},{"type":"event","name":"AgentSuspended","inputs":[{"name":"numericId","type":"uint256","indexed":true,"internalType":"uint256"}],"anonymous":false},{"type":"event","name":"JobCompleted","inputs":[{"name":"numericId","type":"uint256","indexed":true,"internalType":"uint256"},{"name":"newTotal","type":"uint32","indexed":false,"internalType":"uint32"},{"name":"newRating","type":"uint32","indexed":false,"internalType":"uint32"}],"anonymous":false},{"type":"event","name":"MeritSBTSet","inputs":[{"name":"meritSBT","type":"address","indexed":false,"internalType":"address"}],"anonymous":false},{"type":"event","name":"MetadataUpdated","inputs":[{"name":"numericId","type":"uint256","indexed":true,"internalType":"uint256"},{"name":"metadataURI","type":"string","indexed":false,"internalType":"string"}],"anonymous":false},{"type":"event","name":"ScoreUpdated","inputs":[{"name":"numericId","type":"uint256","indexed":true,"internalType":"uint256"},{"name":"oldScore","type":"uint256","indexed":false,"internalType":"uint256"},{"name":"newScore","type":"uint256","indexed":false,"internalType":"uint256"}],"anonymous":false},{"type":"event","name":"TierUpgraded","inputs":[{"name":"numericId","type":"uint256","indexed":true,"internalType":"uint256"},{"name":"newTier","type":"uint8","indexed":false,"internalType":"enum AgentRegistry.Tier"}],"anonymous":false},{"type":"event","name":"VerifierSBTMinted","inputs":[{"name":"numericId","type":"uint256","indexed":true,"internalType":"uint256"},{"name":"wallet","type":"address","indexed":true,"internalType":"address"},{"name":"tokenId","type":"uint256","indexed":false,"internalType":"uint256"}],"anonymous":false},{"type":"error","name":"AgentNotFound","inputs":[]},{"type":"error","name":"AlreadyRegistered","inputs":[]},{"type":"error","name":"InvalidAgentId","inputs":[]},{"type":"error","name":"MeritSBTNotSet","inputs":[]},{"type":"error","name":"NotOwner","inputs":[]},{"type":"error","name":"NotTier1","inputs":[]},{"type":"error","name":"ZeroAddress","inputs":[]}],"bytecode":{"object":"0x608080604052346026575f80546001600160a01b03191633179055611528908161002b8239f35b5f80fdfe60806040526004361015610011575f80fd5b5f3560e01c806309218e7b146111695780631e5082381461113157806329b3c288146111095780632d32a054146110085780632de5aaf714610e2a578063489c950914610be057806353c8388e14610aee5780637971939a14610a78578063799229aa1461094e57806382afd23b1461090e5780638465dcef146104ed5780638da5cb5b146104c6578063a7c009441461036a578063aac596bc146102f0578063b7dc1284146102d3578063c4bfe358146102a9578063f098a7ae1461016c5763fd610317146100df575f80fd5b34610168576020366003190112610168575f54600435906001600160a01b031633036101595761010e816114a6565b805f526003602052600460405f20016801000000000000000060ff60401b198254161790557f7cce21c1f4552995dccace889e9ad45febf59c654d3fd1d7ab0457fa1439aa2c5f80a2005b6330cd747160e01b5f5260045ffd5b5f80fd5b3461016857602036600319011261016857600435610189816114a6565b5f52600360205260405f206101206040516101a38161132e565b82546001600160a01b03168152600183015460208201526101c66002840161136b565b60408201526101d76003840161136b565b606082015260048301546001600160401b038116608083015261020460ff60a084019260401c168261140b565b63ffffffff80600660058701549660c0860197885201549360e0810190828616825260ff610100820196848160201c16885260401c169687916102468361128e565b01526102518661128e565b5116925116935190519060038210156102955760a09461029393604051956102788161128e565b86526020860152604085015260608401526080830190611281565bf35b634e487b7160e01b5f52602160045260245ffd5b34610168576020366003190112610168576004355f526005602052602060405f2054604051908152f35b34610168575f366003190112610168576020600254604051908152f35b34610168576020366003190112610168575f54600435906001600160a01b031633036101595761031f816114a6565b805f526003602052600460405f20016802000000000000000060ff60401b198254161790557f7a517cb06849768fd8a97bc5f1be9c61e2f342a60cb6e6eaf64aaf11978a172a5f80a2005b34610168576020366003190112610168575f54600435906001600160a01b0316330361015957610399816114a6565b6001546001600160a01b03169081156104b757805f52600360205260405f2060ff600682015460401c166103cc8161128e565b600181106104a8578154602091906044906001600160a01b03166103ef8361128e565b6103f88361128e565b5f60405197889485936308e4ec1f60e21b855260048501526104198161128e565b60248401525af192831561049d575f93610468575b50546040519283526001600160a01b0316917f515327ed5f4714dc8674121366e9ed6a3d329acde1f56072c1cb2f65c76d495890602090a3005b9092506020813d602011610495575b816104846020938361134a565b81010312610168575191602061042e565b3d9150610477565b6040513d5f823e3d90fd5b6387267a0560e01b5f5260045ffd5b63273d6bb760e11b5f5260045ffd5b34610168575f366003190112610168575f546040516001600160a01b039091168152602090f35b34610168576080366003190112610168576105066111e7565b602435906044356001600160401b038111610168576105299036906004016111fd565b9190926064356001600160401b0381116101685761054b9036906004016111fd565b6001600160a01b039093169390929084156108ff5782156108f057845f52600460205260405f20546108e157825f52600560205260405f20546108e1576002545f1981146108cd5760016105d0910194856002556105c1604051986105af8a61132e565b888a5260208a0194878652369161143e565b9360408901948552369161143e565b906060870191825260808701926001600160401b034216845260a08801976001895260c08101985f8a5260e08201945f86526101008301935f85526101208401955f87528a5f52600360205260405f209460018060a01b039051166bffffffffffffffffffffffff60a01b8654161785555160018501556002840190518051906001600160401b03821161084b576106728261066c8554611298565b856112d0565b602090601f831160011461086a576106a192915f918361085f575b50508160011b915f199060031b1c19161790565b90555b51805160038401916001600160401b03821161084b576106c88261066c8554611298565b602090601f83116001146107e8576106f692915f91836107dd5750508160011b915f199060031b1c19161790565b90555b6001600160401b03600483019651166001600160401b0319875416178655519160038310156102955763ffffffff806006819460209d6107969a6107869860ff60401b82549160401b169060ff60401b1916179055516005820155019651161682198654161785555116839067ffffffff0000000082549160201b169067ffffffff000000001916179055565b51906107918261128e565b611483565b825f52600484528160405f2055805f52600584528160405f205560405192827f64b2bcb1d1d447eab176eec02936a817f1d7229df42745a482f9a535cd8c13545f80a48152f35b015190508e8061068d565b90601f19831691845f52815f20925f5b818110610833575090846001959493921061081b575b505050811b0190556106f9565b01515f1960f88460031b161c191690558d808061080e565b929360206001819287860151815501950193016107f8565b634e487b7160e01b5f52604160045260245ffd5b015190508f8061068d565b90601f19831691845f52815f20925f5b8181106108b5575090846001959493921061089d575b505050811b0190556106a4565b01515f1960f88460031b161c191690558e8080610890565b9293602060018192878601518155019501930161087a565b634e487b7160e01b5f52601160045260245ffd5b630ea075bf60e21b5f5260045ffd5b63e6394a7760e01b5f5260045ffd5b63d92e233d60e01b5f5260045ffd5b34610168576020366003190112610168576004355f52600360205260ff600460405f20015460401c16600381101561029557602090600160405191148152f35b346101685761095c3661122a565b5f549192916001600160a01b0316330361015957610979826114a6565b815f526003602052600260405f2001926001600160401b03821161084b576109ab826109a58654611298565b866112d0565b5f93601f8311600114610a09576109e783805f5160206114d35f395f51905f5296975f916109fe575b508160011b915f199060031b1c19161790565b90555b6109f960405192839283611417565b0390a2005b9050840135886109d4565b601f19831694815f5260205f20905f5b878110610a605750845f5160206114d35f395f51905f52969710610a47575b5050600183811b0190556109ea565b8301355f19600386901b60f8161c191690558580610a38565b90916020600181928588013581550193019101610a19565b3461016857602036600319011261016857610a916111e7565b5f546001600160a01b0316330361015957600180546001600160a01b0319166001600160a01b0390921691821790556040519081527f61f9152a2a03d3944672998d70cb93616a33b97600e8bb34779b240ca5b9de7d90602090a1005b3461016857610afc3661122a565b610b078392936114a6565b5f828152600360205260409020546001600160a01b0316330361015957815f526003602052600260405f2001926001600160401b03821161084b57610b50826109a58654611298565b5f93601f8311600114610b8b576109e783805f5160206114d35f395f51905f5296975f916109fe57508160011b915f199060031b1c19161790565b601f19831694815f5260205f20905f5b878110610bc85750845f5160206114d35f395f51905f52969710610a47575050600183811b0190556109ea565b90916020600181928588013581550193019101610b9b565b346101685760403660031901126101685760043560243563ffffffff8116809103610168575f546001600160a01b0316330361015957610c1f826114a6565b815f526003602052600660405f20019063ffffffff82541663ffffffff81146108cd57600163ffffffff91011663ffffffff19835416178255815463ffffffff808260201c169116915f19830163ffffffff81116108cd5763ffffffff16918281029281840414901517156108cd5781018091116108cd578115610e1657825467ffffffff00000000191691900460201b67ffffffff000000001617815580549060ff63ffffffff831692847f9c82a2c0ba2e3ed9fc99b66d4970504b5aee703b6f7d573e82b0188035109c426040805187815263ffffffff8560201c166020820152a260401c168092606481101580610e03575b15610d795750506004915b610d288161128e565b610d318361128e565b8203610d3957005b81610d677f4d1431e34c288d933eb3a30e883213bfe4e98c589349780871202c7937143e3c93602093611483565b60405190610d748161128e565b8152a2005b603281101580610df0575b15610d945750506003915b610d1f565b601481101580610ddd575b15610dae575050600291610d1f565b600590939193101580610dca575b15610d8f5760019250610d1f565b50610dd48361128e565b60018310610dbc565b50610de78261128e565b60028210610d9f565b50610dfa8261128e565b60038210610d84565b50610e0d8261128e565b60048210610d14565b634e487b7160e01b5f52601260045260245ffd5b3461016857602036600319011261016857600435604051610e4a8161132e565b5f8152602081015f905260408101606090526060810160609052608081015f905260a081015f905260c081015f905260e081015f905261010081015f9052610120015f9052610e98816114a6565b5f52600360205260405f20604051610eaf8161132e565b81546001600160a01b0316815260018201546020820190815291610ed56002820161136b565b60408301908152610ee86003830161136b565b6060840190815260048301549060808501936001600160401b038316855260a086019260401c60ff16610f1b908461140b565b60058101549060c08701918252600601549260e087019263ffffffff851684526101008801948060201c63ffffffff16865260401c60ff1695610120890196610f638161128e565b8752604051998a9960208b52600160a01b6001900390511660208b01525160408a0152516060890161014090526101608901610f9e9161125d565b9051888203601f190160808a0152610fb6919061125d565b95516001600160401b031660a08801525160c08701610fd491611281565b5160e08601525163ffffffff166101008501525163ffffffff1661012084015251610ffe8161128e565b6101408301520390f35b34610168576110163661122a565b9091611021816114a6565b5f818152600360205260409020546001600160a01b03163303610159575f526003602052600360405f2001906001600160401b03811161084b5761106f816110698454611298565b846112d0565b5f601f82116001146110ab57819061109c93945f926110a05750508160011b915f199060031b1c19161790565b9055005b01359050848061068d565b601f19821693835f5260205f20915f5b8681106110f157508360019596106110d8575b505050811b019055005b01355f19600384901b60f8161c191690558380806110ce565b909260206001819286860135815501940191016110bb565b34610168575f366003190112610168576001546040516001600160a01b039091168152602090f35b34610168576020366003190112610168576001600160a01b036111526111e7565b165f526004602052602060405f2054604051908152f35b34610168576040366003190112610168575f5460043590602435906001600160a01b031633036101595760407fb2383e82269e758b9ec0fc961ac69cecc166570a12068c11b3f9cf29c8de9e88916111c0846114a6565b5f8481526003602090815290839020600501805490839055835190815290810191909152a2005b600435906001600160a01b038216820361016857565b9181601f84011215610168578235916001600160401b038311610168576020838186019501011161016857565b9060406003198301126101685760043591602435906001600160401b03821161016857611259916004016111fd565b9091565b805180835260209291819084018484015e5f828201840152601f01601f1916010190565b9060038210156102955752565b6005111561029557565b90600182811c921680156112c6575b60208310146112b257565b634e487b7160e01b5f52602260045260245ffd5b91607f16916112a7565b919091601f83116112e1575b505050565b8183116112ed57505050565b5f5260205f206020601f830160051c9210611326575b81601f9101920160051c03905f5b828110156112dc575f82820155600101611311565b5f9150611303565b61014081019081106001600160401b0382111761084b57604052565b90601f801991011681019081106001600160401b0382111761084b57604052565b9060405191825f82549261137e84611298565b80845293600181169081156113e957506001146113a5575b506113a39250038361134a565b565b90505f9291925260205f20905f915b8183106113cd5750509060206113a3928201015f611396565b60209193508060019154838589010152019101909184926113b4565b9050602092506113a394915060ff191682840152151560051b8201015f611396565b60038210156102955752565b90918060409360208452816020850152848401375f828201840152601f01601f1916010190565b9291926001600160401b03821161084b5760405191611467601f8201601f19166020018461134a565b829481845281830111610168578281602093845f960137010152565b9061148d8161128e565b60ff60401b82549160401b169060ff60401b1916179055565b80159081156114c6575b506114b757565b63e93ba22360e01b5f5260045ffd5b9050600254105f6114b056fe459157ba24c7ab9878b165ef465fa6ae2ab42bcd8445f576be378768b0c47309a2646970667358221220e6c3d0e8a2f95da46b52a9b9a3b6a1ef1ae96139d29fc990c1613c043f3b9fa264736f6c63430008210033","linkReferences":{}},"methodIdentifiers":{"adminUpdateMetadata(uint256,string)":"799229aa","agentCount()":"b7dc1284","getAgent(uint256)":"2de5aaf7","getAgentIdByAgentHash(bytes32)":"c4bfe358","getAgentIdByWallet(address)":"1e508238","getAgentProfile(uint256)":"f098a7ae","isActive(uint256)":"82afd23b","meritSBT()":"29b3c288","mintVerifierSBT(uint256)":"a7c00944","owner()":"8da5cb5b","reactivateAgent(uint256)":"fd610317","recordJobCompleted(uint256,uint32)":"489c9509","registerAgent(address,bytes32,string,string)":"8465dcef","setMeritSBT(address)":"7971939a","suspendAgent(uint256)":"aac596bc","updateMetadata(uint256,string)":"53c8388e","updateScore(uint256,uint256)":"09218e7b","updateWebhook(uint256,string)":"2d32a054"},"id":53}