{"abi":[{"type":"constructor","inputs":[],"stateMutability":"nonpayable"},{"type":"function","name":"addXP","inputs":[{"name":"numericId","type":"uint256","internalType":"uint256"},{"name":"rewardUsd","type":"uint256","internalType":"uint256"},{"name":"ratingX100","type":"uint32","internalType":"uint32"},{"name":"isLate","type":"bool","internalType":"bool"},{"name":"disputeLost","type":"bool","internalType":"bool"},{"name":"disputeOpened","type":"bool","internalType":"bool"}],"outputs":[],"stateMutability":"nonpayable"},{"type":"function","name":"adminUpdateMetadata","inputs":[{"name":"numericId","type":"uint256","internalType":"uint256"},{"name":"metadataURI","type":"string","internalType":"string"}],"outputs":[],"stateMutability":"nonpayable"},{"type":"function","name":"agentCount","inputs":[],"outputs":[{"name":"","type":"uint256","internalType":"uint256"}],"stateMutability":"view"},{"type":"function","name":"escrow","inputs":[],"outputs":[{"name":"","type":"address","internalType":"address"}],"stateMutability":"view"},{"type":"function","name":"getAgent","inputs":[{"name":"numericId","type":"uint256","internalType":"uint256"}],"outputs":[{"name":"","type":"tuple","internalType":"struct AgentRegistry.Agent","components":[{"name":"wallet","type":"address","internalType":"address"},{"name":"agentId","type":"bytes32","internalType":"bytes32"},{"name":"metadataURI","type":"string","internalType":"string"},{"name":"webhookUrl","type":"string","internalType":"string"},{"name":"registeredAt","type":"uint64","internalType":"uint64"},{"name":"status","type":"uint8","internalType":"enum AgentRegistry.AgentStatus"},{"name":"score","type":"uint256","internalType":"uint256"},{"name":"jobsCompleted","type":"uint32","internalType":"uint32"},{"name":"rating","type":"uint32","internalType":"uint32"},{"name":"tier","type":"uint8","internalType":"enum AgentRegistry.Tier"}]}],"stateMutability":"view"},{"type":"function","name":"getAgentIdByAgentHash","inputs":[{"name":"agentId","type":"bytes32","internalType":"bytes32"}],"outputs":[{"name":"","type":"uint256","internalType":"uint256"}],"stateMutability":"view"},{"type":"function","name":"getAgentIdByWallet","inputs":[{"name":"wallet","type":"address","internalType":"address"}],"outputs":[{"name":"","type":"uint256","internalType":"uint256"}],"stateMutability":"view"},{"type":"function","name":"getAgentProfile","inputs":[{"name":"numericId","type":"uint256","internalType":"uint256"}],"outputs":[{"name":"tier","type":"uint8","internalType":"enum AgentRegistry.Tier"},{"name":"jobsCompleted","type":"uint32","internalType":"uint32"},{"name":"rating","type":"uint32","internalType":"uint32"},{"name":"score","type":"uint256","internalType":"uint256"},{"name":"status","type":"uint8","internalType":"enum AgentRegistry.AgentStatus"}],"stateMutability":"view"},{"type":"function","name":"isActive","inputs":[{"name":"numericId","type":"uint256","internalType":"uint256"}],"outputs":[{"name":"","type":"bool","internalType":"bool"}],"stateMutability":"view"},{"type":"function","name":"meritSBT","inputs":[],"outputs":[{"name":"","type":"address","internalType":"contract MeritSBT"}],"stateMutability":"view"},{"type":"function","name":"mintVerifierSBT","inputs":[{"name":"numericId","type":"uint256","internalType":"uint256"}],"outputs":[],"stateMutability":"nonpayable"},{"type":"function","name":"owner","inputs":[],"outputs":[{"name":"","type":"address","internalType":"address"}],"stateMutability":"view"},{"type":"function","name":"reactivateAgent","inputs":[{"name":"numericId","type":"uint256","internalType":"uint256"}],"outputs":[],"stateMutability":"nonpayable"},{"type":"function","name":"recordJobCompleted","inputs":[{"name":"numericId","type":"uint256","internalType":"uint256"},{"name":"ratingX100","type":"uint32","internalType":"uint32"}],"outputs":[],"stateMutability":"nonpayable"},{"type":"function","name":"registerAgent","inputs":[{"name":"wallet","type":"address","internalType":"address"},{"name":"agentId","type":"bytes32","internalType":"bytes32"},{"name":"metadataURI","type":"string","internalType":"string"},{"name":"webhookUrl","type":"string","internalType":"string"}],"outputs":[{"name":"numericId","type":"uint256","internalType":"uint256"}],"stateMutability":"nonpayable"},{"type":"function","name":"setEscrow","inputs":[{"name":"_escrow","type":"address","internalType":"address"}],"outputs":[],"stateMutability":"nonpayable"},{"type":"function","name":"setMeritSBT","inputs":[{"name":"_meritSBT","type":"address","internalType":"address"}],"outputs":[],"stateMutability":"nonpayable"},{"type":"function","name":"suspendAgent","inputs":[{"name":"numericId","type":"uint256","internalType":"uint256"}],"outputs":[],"stateMutability":"nonpayable"},{"type":"function","name":"updateMetadata","inputs":[{"name":"numericId","type":"uint256","internalType":"uint256"},{"name":"metadataURI","type":"string","internalType":"string"}],"outputs":[],"stateMutability":"nonpayable"},{"type":"function","name":"updateScore","inputs":[{"name":"numericId","type":"uint256","internalType":"uint256"},{"name":"newScore","type":"uint256","internalType":"uint256"}],"outputs":[],"stateMutability":"nonpayable"},{"type":"function","name":"updateWebhook","inputs":[{"name":"numericId","type":"uint256","internalType":"uint256"},{"name":"webhookUrl","type":"string","internalType":"string"}],"outputs":[],"stateMutability":"nonpayable"},{"type":"event","name":"AgentReactivated","inputs":[{"name":"numericId","type":"uint256","indexed":true,"internalType":"uint256"}],"anonymous":false},{"type":"event","name":"AgentRegistered","inputs":[{"name":"numericId","type":"uint256","indexed":true,"internalType":"uint256"},{"name":"wallet","type":"address","indexed":true,"internalType":"address"},{"name":"agentId","type":"bytes32","indexed":true,"internalType":"bytes32"}],"anonymous":false},{"type":"event","name":"AgentSuspended","inputs":[{"name":"numericId","type":"uint256","indexed":true,"internalType":"uint256"}],"anonymous":false},{"type":"event","name":"EscrowSet","inputs":[{"name":"escrow","type":"address","indexed":false,"internalType":"address"}],"anonymous":false},{"type":"event","name":"JobCompleted","inputs":[{"name":"numericId","type":"uint256","indexed":true,"internalType":"uint256"},{"name":"newTotal","type":"uint32","indexed":false,"internalType":"uint32"},{"name":"newRating","type":"uint32","indexed":false,"internalType":"uint32"}],"anonymous":false},{"type":"event","name":"MeritSBTSet","inputs":[{"name":"meritSBT","type":"address","indexed":false,"internalType":"address"}],"anonymous":false},{"type":"event","name":"MetadataUpdated","inputs":[{"name":"numericId","type":"uint256","indexed":true,"internalType":"uint256"},{"name":"metadataURI","type":"string","indexed":false,"internalType":"string"}],"anonymous":false},{"type":"event","name":"ScoreUpdated","inputs":[{"name":"numericId","type":"uint256","indexed":true,"internalType":"uint256"},{"name":"oldScore","type":"uint256","indexed":false,"internalType":"uint256"},{"name":"newScore","type":"uint256","indexed":false,"internalType":"uint256"}],"anonymous":false},{"type":"event","name":"TierUpgraded","inputs":[{"name":"numericId","type":"uint256","indexed":true,"internalType":"uint256"},{"name":"newTier","type":"uint8","indexed":false,"internalType":"enum AgentRegistry.Tier"}],"anonymous":false},{"type":"event","name":"VerifierSBTMinted","inputs":[{"name":"numericId","type":"uint256","indexed":true,"internalType":"uint256"},{"name":"wallet","type":"address","indexed":true,"internalType":"address"},{"name":"tokenId","type":"uint256","indexed":false,"internalType":"uint256"}],"anonymous":false},{"type":"error","name":"AgentNotFound","inputs":[]},{"type":"error","name":"AlreadyRegistered","inputs":[]},{"type":"error","name":"InvalidAgentId","inputs":[]},{"type":"error","name":"MeritSBTNotSet","inputs":[]},{"type":"error","name":"NotEscrow","inputs":[]},{"type":"error","name":"NotOwner","inputs":[]},{"type":"error","name":"NotTier1","inputs":[]},{"type":"error","name":"ZeroAddress","inputs":[]}],"bytecode":{"object":"0x608080604052346026575f80546001600160a01b03191633179055611a1a908161002b8239f35b5f80fdfe60806040526004361015610011575f80fd5b5f5f3560e01c80630859c59b1461139b57806309218e7b1461128c5780631e5082381461125357806329b3c2881461122a5780632d32a054146111105780632de5aaf714610f38578063489c950914610cf557806353c8388e14610c015780637971939a14610b89578063799229aa14610a3857806382afd23b146109f65780638465dcef146105bf5780638da5cb5b14610598578063a7c0094414610436578063aac596bc146103ba578063b7dc12841461039c578063c10c354614610324578063c4bfe358146102fa578063e2fdcc17146102d1578063f098a7ae1461018e5763fd61031714610101575f80fd5b3461018b57602036600319011261018b578054600435906001600160a01b0316330361017c57610130816118fb565b8082526004602052600460408320016801000000000000000060ff60401b198254161790557f7cce21c1f4552995dccace889e9ad45febf59c654d3fd1d7ab0457fa1439aa2c8280a280f35b6330cd747160e01b8252600482fd5b80fd5b503461018b57602036600319011261018b576004356101ac816118fb565b8152600460205261012060408220604051906101c782611792565b80546001600160a01b03168252600181015460208301526101ea600282016117e3565b60408301526101fb600382016117e3565b60608301526004810154916001600160401b038316608082015261022960ff60a083019460401c1684611883565b63ffffffff80600660058501549460c0850195865201549260e0810190828516825260ff610100820195848160201c16875260401c1697889161026b83611691565b015261027687611691565b5116915116915192519460038610156102bd57509160a094916102bb93604051956102a081611691565b86526020860152604085015260608401526080830190611670565bf35b634e487b7160e01b81526021600452602490fd5b503461018b578060031936011261018b576001546040516001600160a01b039091168152602090f35b503461018b57602036600319011261018b5760406020916004358152600683522054604051908152f35b503461018b57602036600319011261018b5761033e6115d6565b81546001600160a01b0316330361017c57600180546001600160a01b0319166001600160a01b0390921691821790556040519081527fa585aec3a6cb0e1a084ed18c7638024e40cc3e3ea815166e2cb6fc17d7f1392b90602090a180f35b503461018b578060031936011261018b576020600354604051908152f35b503461018b57602036600319011261018b578054600435906001600160a01b0316330361017c576103ea816118fb565b8082526004602052600460408320016802000000000000000060ff60401b198254161790557f7a517cb06849768fd8a97bc5f1be9c61e2f342a60cb6e6eaf64aaf11978a172a8280a280f35b503461018b57602036600319011261018b578054600435906001600160a01b0316330361017c57610466816118fb565b6002546001600160a01b03169081156105895780835260046020526040832060ff600682015460401c1661049981611691565b6001811061057a578154602091906044906001600160a01b03166104bc83611691565b6104c583611691565b8760405197889485936308e4ec1f60e21b855260048501526104e681611691565b60248401525af192831561056f578493610536575b50546040519283526001600160a01b0316917f515327ed5f4714dc8674121366e9ed6a3d329acde1f56072c1cb2f65c76d495890602090a380f35b9092506020813d602011610567575b81610552602093836117c2565b8101031261056357519160206104fb565b8380fd5b3d9150610545565b6040513d86823e3d90fd5b6387267a0560e01b8552600485fd5b63273d6bb760e11b8352600483fd5b503461018b578060031936011261018b57546040516001600160a01b039091168152602090f35b503461018b57608036600319011261018b576105d96115d6565b90602435916044356001600160401b0381116109f2576105fd9036906004016115ec565b6064949194356001600160401b0381116109ee5761061f9036906004016115ec565b90936001600160a01b03169182156109df5783156109d057828652600560205260408620546109c157838652600660205260408620546109c157600354965f1988146109ad576106a3600188990196876003556106946040519361068285611792565b878552602085019589875236916118b6565b946040840195865236916118b6565b60608201908152608082016001600160401b034216815260a083016001815260c08401928a845260e08501968b88526101008601968c885261012087019d8e528b8d52600460205260408d209660018060a01b039051166bffffffffffffffffffffffff60a01b88541617875551600187015560028601905180516001600160401b038111610999576107408161073a85546116fc565b85611734565b60208e6001601f841114610937579061076d93836108b6575b50508160011b915f199060031b1c19161790565b90555b60038501905180516001600160401b038111610923576107948161073a85546116fc565b60208d601f83116001146108c157906107c093836108b65750508160011b915f199060031b1c19161790565b90555b6001600160401b03600485019251166001600160401b03198354161782555160038110156108a257815468ff0000000000000000191660409190911b60ff60401b1617905551600582015591516006929092018054915167ffffffffffffffff1990921663ffffffff9390931692909217602091821b67ffffffff00000000161782559561085c9190519061085782611691565b6116d9565b8084526005855282604085205581845260068552826040852055827f64b2bcb1d1d447eab176eec02936a817f1d7229df42745a482f9a535cd8c13546040519580a48152f35b634e487b7160e01b8a52602160045260248afd5b015190505f80610759565b9192601f198416858452828420935b81811061090b57509084600195949392106108f3575b505050811b0190556107c3565b01515f1960f88460031b161c191690555f80806108e6565b929360206001819287860151815501950193016108d0565b634e487b7160e01b8d52604160045260248dfd5b9192601f198416858452828420935b8181106109815750908460019594939210610969575b505050811b019055610770565b01515f1960f88460031b161c191690555f808061095c565b92936020600181928786015181550195019301610946565b634e487b7160e01b8e52604160045260248efd5b634e487b7160e01b87526011600452602487fd5b630ea075bf60e21b8652600486fd5b63e6394a7760e01b8652600486fd5b63d92e233d60e01b8652600486fd5b8480fd5b8280fd5b503461018b57602036600319011261018b576004358152600460205260ff600460408320015460401c169060038210156102bd57602082600160405191148152f35b503461018b57610a4736611619565b8354919392916001600160a01b03163303610b7a57610a65826118fb565b818352600460205260026040842001936001600160401b038211610b6657610a9782610a9187546116fc565b87611734565b8394601f8311600114610af757610ad4838087985f5160206119c55f395f51905f52979891610aec575b508160011b915f199060031b1c19161790565b90555b610ae66040519283928361188f565b0390a280f35b90508401355f610ac1565b80855260208520601f19841696865b888110610b4e5750845f5160206119c55f395f51905f5296979810610b35575b5050600183811b019055610ad7565b8301355f19600386901b60f8161c191690555f80610b26565b90916020600181928588013581550193019101610b06565b634e487b7160e01b84526041600452602484fd5b6330cd747160e01b8352600483fd5b503461018b57602036600319011261018b57610ba36115d6565b81546001600160a01b0316330361017c57600280546001600160a01b0319166001600160a01b0390921691821790556040519081527f61f9152a2a03d3944672998d70cb93616a33b97600e8bb34779b240ca5b9de7d90602090a180f35b503461018b57610c1036611619565b610c1c839294936118fb565b818352600460205260408320546001600160a01b03163303610b7a57818352600460205260026040842001936001600160401b038211610b6657610c6482610a9187546116fc565b8394601f8311600114610ca057610ad4838087985f5160206119c55f395f51905f52979891610aec57508160011b915f199060031b1c19161790565b80855260208520601f19841696865b888110610cdd5750845f5160206119c55f395f51905f5296979810610b35575050600183811b019055610ad7565b90916020600181928588013581550193019101610caf565b503461018b57604036600319011261018b5760043560243563ffffffff8116809103610f34576001546001600160a01b03163303610f2557610d36826118fb565b81835260046020526040832090600682019063ffffffff82541663ffffffff8114610f1157600163ffffffff91011663ffffffff1983541617825581549063ffffffff8216915f19830163ffffffff8111610efd5792610db263ffffffff93610dad610db7948680610dd899169160201c1661169b565b6116ae565b6116bb565b835467ffffffff000000001916911660201b67ffffffff0000000016178255565b805460ff610e29600563ffffffff841695877f9c82a2c0ba2e3ed9fc99b66d4970504b5aee703b6f7d573e82b0188035109c42604080518a815263ffffffff8960201c166020820152a20154611968565b9160401c16809360648110155f14610ecb57505060045b610e4982611691565b610e5281611691565b60ff81811690831610610ec35750915b610e6b81611691565b610e7483611691565b8203610e7e578380f35b81610eac7f4d1431e34c288d933eb3a30e883213bfe4e98c589349780871202c7937143e3c936020936116d9565b60405190610eb981611691565b8152a25f80808380f35b905091610e62565b60328110610edd57505060035b610e40565b60148110610eee5750506002610e40565b600511610ed857506001610e40565b634e487b7160e01b88526011600452602488fd5b634e487b7160e01b86526011600452602486fd5b637e223fb160e11b8352600483fd5b5f80fd5b503461018b57602036600319011261018b5760043581604051610f5a81611792565b818152816020820152604081016060905260608101606090528160808201528160a08201528160c08201528160e0820152816101008201526101200152610fa0816118fb565b8152600460205260409020604051610fb781611792565b81546001600160a01b0316815260018201546020820190815291610fdd600282016117e3565b60408301908152610ff0600383016117e3565b6060840190815260048301549060808501936001600160401b038316855260a086019260401c60ff166110239084611883565b60058101549060c08701918252600601549260e087019263ffffffff851684526101008801948060201c63ffffffff16865260401c60ff169561012089019661106b81611691565b8752604051998a9960208b52600160a01b6001900390511660208b01525160408a01525160608901610140905261016089016110a69161164c565b9051888203601f190160808a01526110be919061164c565b95516001600160401b031660a08801525160c087016110dc91611670565b5160e08601525163ffffffff166101008501525163ffffffff166101208401525161110681611691565b6101408301520390f35b503461018b5761111f36611619565b90929161112b816118fb565b808352600460205260408320546001600160a01b03163303610b7a578252600460205260036040832001906001600160401b038111611216576111788161117284546116fc565b84611734565b82601f82116001146111b657819084956111a69495926111ab5750508160011b915f199060031b1c19161790565b905580f35b013590505f80610759565b601f198216948385526020852091855b8781106111fe5750836001959697106111e5575b505050811b01905580f35b01355f19600384901b60f8161c191690555f80806111da565b909260206001819286860135815501940191016111c6565b634e487b7160e01b83526041600452602483fd5b503461018b578060031936011261018b576002546040516001600160a01b039091168152602090f35b503461018b57602036600319011261018b576020906040906001600160a01b0361127b6115d6565b168152600583522054604051908152f35b503461018b57604036600319011261018b57805460043590602435906001600160a01b03163303610b7a5760407fb2383e82269e758b9ec0fc961ac69cecc166570a12068c11b3f9cf29c8de9e88916112e4846118fb565b83855260046020526005828620015490848652600460205280600584882001558461130e82611968565b818852600460205260ff6006868a200154861c1661132b81611691565b61133482611691565b810361134b575b505082519182526020820152a280f35b60207f4d1431e34c288d933eb3a30e883213bfe4e98c589349780871202c7937143e3c91838a5260048252611385816006898d20016116d9565b86519061139181611691565b8152a2845f61133b565b5034610f345760c0366003190112610f34576004356044359163ffffffff8316809303610f345760643592831580158503610f3457608435918215158303610f345760a435908115158203610f34576001546001600160a01b031633036115c757611405866118fb565b855f52600460205260405f209661141d602435611927565b9467016345785d8a000086029580870467016345785d8a00001490151715611505571561147057505f969450505050505b600661145d6005830154611968565b910160ff815460401c16610e6b81611691565b9496946127106101f483106115b357611388810180911161150557935b6115a0575b611574575b60c8101561154f575b611519575b6114b2906127109261169b565b0460058201906114c38183546116ae565b80925581038181116115055760407fb2383e82269e758b9ec0fc961ac69cecc166570a12068c11b3f9cf29c8de9e8891859382519182526020820152a261144e565b634e487b7160e01b5f52601160045260245ffd5b6103e88110611541576103e719810190811161150557612710916114b2915b915091506114a5565b506114b2612710915f611538565b906109c4811061156d576109c3198101908111611505575b906114a0565b505f611567565b916113888110611597576113871981019081116115055760c8905b929050611497565b5060c85f61158f565b926109c481018091116115055792611492565b93610190831061148d57612af8945061148d565b637e223fb160e11b5f5260045ffd5b600435906001600160a01b0382168203610f3457565b9181601f84011215610f34578235916001600160401b038311610f345760208381860195010111610f3457565b906040600319830112610f345760043591602435906001600160401b038211610f3457611648916004016115ec565b9091565b805180835260209291819084018484015e5f828201840152601f01601f1916010190565b90600382101561167d5752565b634e487b7160e01b5f52602160045260245ffd5b6005111561167d57565b8181029291811591840414171561150557565b9190820180921161150557565b81156116c5570490565b634e487b7160e01b5f52601260045260245ffd5b906116e381611691565b60ff60401b82549160401b169060ff60401b1916179055565b90600182811c9216801561172a575b602083101461171657565b634e487b7160e01b5f52602260045260245ffd5b91607f169161170b565b919091601f8311611745575b505050565b81831161175157505050565b5f5260205f206020601f830160051c921061178a575b81601f9101920160051c03905f5b82811015611740575f82820155600101611775565b5f9150611767565b61014081019081106001600160401b038211176117ae57604052565b634e487b7160e01b5f52604160045260245ffd5b90601f801991011681019081106001600160401b038211176117ae57604052565b9060405191825f8254926117f6846116fc565b8084529360018116908115611861575060011461181d575b5061181b925003836117c2565b565b90505f9291925260205f20905f915b81831061184557505090602061181b928201015f61180e565b602091935080600191548385890101520191019091849261182c565b90506020925061181b94915060ff191682840152151560051b8201015f61180e565b600382101561167d5752565b90918060409360208452816020850152848401375f828201840152601f01601f1916010190565b9291926001600160401b0382116117ae57604051916118df601f8201601f1916602001846117c2565b829481845281830111610f34578281602093845f960137010152565b801590811561191b575b5061190c57565b63e93ba22360e01b5f5260045ffd5b9050600354105f611905565b90811561196357600182018083116115055760011c825b838210611949575050565b90925061195a83610dad81846116bb565b60011c9061193e565b5f9150565b69054b40b1f852bda00000811061197f5750600490565b6901b1ae4d6e2ef500000081106119965750600390565b686c6b935b8bbd40000081106119ac5750600290565b681b1ae4d6e2ef500000116119c057600190565b5f9056fe459157ba24c7ab9878b165ef465fa6ae2ab42bcd8445f576be378768b0c47309a26469706673582212206ee5f5fddf968fc4a5fc43fdaa6df3f1f6bc2be737131cc46017d4471363e91264736f6c63430008210033","linkReferences":{}},"methodIdentifiers":{"addXP(uint256,uint256,uint32,bool,bool,bool)":"0859c59b","adminUpdateMetadata(uint256,string)":"799229aa","agentCount()":"b7dc1284","escrow()":"e2fdcc17","getAgent(uint256)":"2de5aaf7","getAgentIdByAgentHash(bytes32)":"c4bfe358","getAgentIdByWallet(address)":"1e508238","getAgentProfile(uint256)":"f098a7ae","isActive(uint256)":"82afd23b","meritSBT()":"29b3c288","mintVerifierSBT(uint256)":"a7c00944","owner()":"8da5cb5b","reactivateAgent(uint256)":"fd610317","recordJobCompleted(uint256,uint32)":"489c9509","registerAgent(address,bytes32,string,string)":"8465dcef","setEscrow(address)":"c10c3546","setMeritSBT(address)":"7971939a","suspendAgent(uint256)":"aac596bc","updateMetadata(uint256,string)":"53c8388e","updateScore(uint256,uint256)":"09218e7b","updateWebhook(uint256,string)":"2d32a054"},"id":62}