{"abi":[{"type":"constructor","inputs":[],"stateMutability":"nonpayable"},{"type":"function","name":"agentCount","inputs":[],"outputs":[{"name":"","type":"uint256","internalType":"uint256"}],"stateMutability":"view"},{"type":"function","name":"getAgent","inputs":[{"name":"numericId","type":"uint256","internalType":"uint256"}],"outputs":[{"name":"","type":"tuple","internalType":"struct AgentRegistry.Agent","components":[{"name":"wallet","type":"address","internalType":"address"},{"name":"agentId","type":"bytes32","internalType":"bytes32"},{"name":"metadataURI","type":"string","internalType":"string"},{"name":"webhookUrl","type":"string","internalType":"string"},{"name":"registeredAt","type":"uint64","internalType":"uint64"},{"name":"status","type":"uint8","internalType":"enum AgentRegistry.AgentStatus"},{"name":"score","type":"uint256","internalType":"uint256"},{"name":"jobsCompleted","type":"uint32","internalType":"uint32"},{"name":"rating","type":"uint32","internalType":"uint32"},{"name":"tier","type":"uint8","internalType":"enum AgentRegistry.Tier"}]}],"stateMutability":"view"},{"type":"function","name":"getAgentIdByAgentHash","inputs":[{"name":"agentId","type":"bytes32","internalType":"bytes32"}],"outputs":[{"name":"","type":"uint256","internalType":"uint256"}],"stateMutability":"view"},{"type":"function","name":"getAgentIdByWallet","inputs":[{"name":"wallet","type":"address","internalType":"address"}],"outputs":[{"name":"","type":"uint256","internalType":"uint256"}],"stateMutability":"view"},{"type":"function","name":"getAgentProfile","inputs":[{"name":"numericId","type":"uint256","internalType":"uint256"}],"outputs":[{"name":"tier","type":"uint8","internalType":"enum AgentRegistry.Tier"},{"name":"jobsCompleted","type":"uint32","internalType":"uint32"},{"name":"rating","type":"uint32","internalType":"uint32"},{"name":"score","type":"uint256","internalType":"uint256"},{"name":"status","type":"uint8","internalType":"enum AgentRegistry.AgentStatus"}],"stateMutability":"view"},{"type":"function","name":"isActive","inputs":[{"name":"numericId","type":"uint256","internalType":"uint256"}],"outputs":[{"name":"","type":"bool","internalType":"bool"}],"stateMutability":"view"},{"type":"function","name":"meritSBT","inputs":[],"outputs":[{"name":"","type":"address","internalType":"contract MeritSBT"}],"stateMutability":"view"},{"type":"function","name":"mintVerifierSBT","inputs":[{"name":"numericId","type":"uint256","internalType":"uint256"}],"outputs":[],"stateMutability":"nonpayable"},{"type":"function","name":"owner","inputs":[],"outputs":[{"name":"","type":"address","internalType":"address"}],"stateMutability":"view"},{"type":"function","name":"reactivateAgent","inputs":[{"name":"numericId","type":"uint256","internalType":"uint256"}],"outputs":[],"stateMutability":"nonpayable"},{"type":"function","name":"recordJobCompleted","inputs":[{"name":"numericId","type":"uint256","internalType":"uint256"},{"name":"ratingX100","type":"uint32","internalType":"uint32"}],"outputs":[],"stateMutability":"nonpayable"},{"type":"function","name":"registerAgent","inputs":[{"name":"wallet","type":"address","internalType":"address"},{"name":"agentId","type":"bytes32","internalType":"bytes32"},{"name":"metadataURI","type":"string","internalType":"string"},{"name":"webhookUrl","type":"string","internalType":"string"}],"outputs":[{"name":"numericId","type":"uint256","internalType":"uint256"}],"stateMutability":"nonpayable"},{"type":"function","name":"setMeritSBT","inputs":[{"name":"_meritSBT","type":"address","internalType":"address"}],"outputs":[],"stateMutability":"nonpayable"},{"type":"function","name":"suspendAgent","inputs":[{"name":"numericId","type":"uint256","internalType":"uint256"}],"outputs":[],"stateMutability":"nonpayable"},{"type":"function","name":"updateMetadata","inputs":[{"name":"numericId","type":"uint256","internalType":"uint256"},{"name":"metadataURI","type":"string","internalType":"string"}],"outputs":[],"stateMutability":"nonpayable"},{"type":"function","name":"updateScore","inputs":[{"name":"numericId","type":"uint256","internalType":"uint256"},{"name":"newScore","type":"uint256","internalType":"uint256"}],"outputs":[],"stateMutability":"nonpayable"},{"type":"event","name":"AgentReactivated","inputs":[{"name":"numericId","type":"uint256","indexed":true,"internalType":"uint256"}],"anonymous":false},{"type":"event","name":"AgentRegistered","inputs":[{"name":"numericId","type":"uint256","indexed":true,"internalType":"uint256"},{"name":"wallet","type":"address","indexed":true,"internalType":"address"},{"name":"agentId","type":"bytes32","indexed":true,"internalType":"bytes32"}],"anonymous":false},{"type":"event","name":"AgentSuspended","inputs":[{"name":"numericId","type":"uint256","indexed":true,"internalType":"uint256"}],"anonymous":false},{"type":"event","name":"JobCompleted","inputs":[{"name":"numericId","type":"uint256","indexed":true,"internalType":"uint256"},{"name":"newTotal","type":"uint32","indexed":false,"internalType":"uint32"},{"name":"newRating","type":"uint32","indexed":false,"internalType":"uint32"}],"anonymous":false},{"type":"event","name":"MeritSBTSet","inputs":[{"name":"meritSBT","type":"address","indexed":false,"internalType":"address"}],"anonymous":false},{"type":"event","name":"MetadataUpdated","inputs":[{"name":"numericId","type":"uint256","indexed":true,"internalType":"uint256"},{"name":"metadataURI","type":"string","indexed":false,"internalType":"string"}],"anonymous":false},{"type":"event","name":"ScoreUpdated","inputs":[{"name":"numericId","type":"uint256","indexed":true,"internalType":"uint256"},{"name":"oldScore","type":"uint256","indexed":false,"internalType":"uint256"},{"name":"newScore","type":"uint256","indexed":false,"internalType":"uint256"}],"anonymous":false},{"type":"event","name":"TierUpgraded","inputs":[{"name":"numericId","type":"uint256","indexed":true,"internalType":"uint256"},{"name":"newTier","type":"uint8","indexed":false,"internalType":"enum AgentRegistry.Tier"}],"anonymous":false},{"type":"event","name":"VerifierSBTMinted","inputs":[{"name":"numericId","type":"uint256","indexed":true,"internalType":"uint256"},{"name":"wallet","type":"address","indexed":true,"internalType":"address"},{"name":"tokenId","type":"uint256","indexed":false,"internalType":"uint256"}],"anonymous":false},{"type":"error","name":"AgentNotFound","inputs":[]},{"type":"error","name":"AlreadyRegistered","inputs":[]},{"type":"error","name":"InvalidAgentId","inputs":[]},{"type":"error","name":"MeritSBTNotSet","inputs":[]},{"type":"error","name":"NotOwner","inputs":[]},{"type":"error","name":"NotTier1","inputs":[]},{"type":"error","name":"ZeroAddress","inputs":[]}],"bytecode":{"object":"0x608080604052346026575f80546001600160a01b0319163317905561131e908161002b8239f35b5f80fdfe60806040526004361015610011575f80fd5b5f3560e01c806309218e7b14610fd95780631e50823814610fa157806329b3c28814610f795780632de5aaf714610d9b578063489c950914610b5157806353c8388e146109be5780637971939a1461094857806382afd23b146109085780638465dcef146104d75780638da5cb5b146104b0578063a7c0094414610354578063aac596bc146102da578063b7dc1284146102bd578063c4bfe35814610293578063f098a7ae146101565763fd610317146100c9575f80fd5b34610152576020366003190112610152575f54600435906001600160a01b03163303610143576100f8816112bc565b805f526003602052600460405f20016801000000000000000060ff60401b198254161790557f7cce21c1f4552995dccace889e9ad45febf59c654d3fd1d7ab0457fa1439aa2c5f80a2005b6330cd747160e01b5f5260045ffd5b5f80fd5b3461015257602036600319011261015257600435610173816112bc565b5f52600360205260405f2061012060405161018d816110d5565b82546001600160a01b03168152600183015460208201526101b06002840161114a565b60408201526101c16003840161114a565b606082015260048301546001600160401b03811660808301526101ee60ff60a084019260401c16826111ea565b63ffffffff80600660058701549660c0860197885201549360e0810190828616825260ff610100820196848160201c16885260401c169687916102308361109e565b015261023b8661109e565b51169251169351905190600382101561027f5760a09461027d93604051956102628161109e565b86526020860152604085015260608401526080830190611091565bf35b634e487b7160e01b5f52602160045260245ffd5b34610152576020366003190112610152576004355f526005602052602060405f2054604051908152f35b34610152575f366003190112610152576020600254604051908152f35b34610152576020366003190112610152575f54600435906001600160a01b0316330361014357610309816112bc565b805f526003602052600460405f20016802000000000000000060ff60401b198254161790557f7a517cb06849768fd8a97bc5f1be9c61e2f342a60cb6e6eaf64aaf11978a172a5f80a2005b34610152576020366003190112610152575f54600435906001600160a01b0316330361014357610383816112bc565b6001546001600160a01b03169081156104a157805f52600360205260405f2060ff600682015460401c166103b68161109e565b60018110610492578154602091906044906001600160a01b03166103d98361109e565b6103e28361109e565b5f60405197889485936308e4ec1f60e21b855260048501526104038161109e565b60248401525af1928315610487575f93610452575b50546040519283526001600160a01b0316917f515327ed5f4714dc8674121366e9ed6a3d329acde1f56072c1cb2f65c76d495890602090a3005b9092506020813d60201161047f575b8161046e602093836110f1565b810103126101525751916020610418565b3d9150610461565b6040513d5f823e3d90fd5b6387267a0560e01b5f5260045ffd5b63273d6bb760e11b5f5260045ffd5b34610152575f366003190112610152575f546040516001600160a01b039091168152602090f35b34610152576080366003190112610152576104f0611057565b602435906044356001600160401b038111610152576105139036906004016110a8565b9190926064356001600160401b038111610152576105359036906004016110a8565b5f54919390916001600160a01b03163303610143576001600160a01b03169384156108f95782156108ea57845f52600460205260405f20546108db57825f52600560205260405f20546108db576002545f1981146108c75760016105ca910194856002556105bb604051986105a98a6110d5565b888a5260208a01948786523691611254565b93604089019485523691611254565b906060870191825260808701926001600160401b034216845260a08801976001895260c08101985f8a5260e08201945f86526101008301935f85526101208401955f87528a5f52600360205260405f209460018060a01b039051166bffffffffffffffffffffffff60a01b8654161785555160018501556002840190518051906001600160401b0382116108455761066c826106668554611112565b856111f6565b602090601f83116001146108645761069b92915f9183610859575b50508160011b915f199060031b1c19161790565b90555b51805160038401916001600160401b038211610845576106c2826106668554611112565b602090601f83116001146107e2576106f092915f91836107d75750508160011b915f199060031b1c19161790565b90555b6001600160401b03600483019651166001600160401b03198754161786555191600383101561027f5763ffffffff806006819460209d6107909a6107809860ff60401b82549160401b169060ff60401b1916179055516005820155019651161682198654161785555116839067ffffffff0000000082549160201b169067ffffffff000000001916179055565b519061078b8261109e565b611299565b825f52600484528160405f2055805f52600584528160405f205560405192827f64b2bcb1d1d447eab176eec02936a817f1d7229df42745a482f9a535cd8c13545f80a48152f35b015190508e80610687565b90601f19831691845f52815f20925f5b81811061082d5750908460019594939210610815575b505050811b0190556106f3565b01515f1960f88460031b161c191690558d8080610808565b929360206001819287860151815501950193016107f2565b634e487b7160e01b5f52604160045260245ffd5b015190508f80610687565b90601f19831691845f52815f20925f5b8181106108af5750908460019594939210610897575b505050811b01905561069e565b01515f1960f88460031b161c191690558e808061088a565b92936020600181928786015181550195019301610874565b634e487b7160e01b5f52601160045260245ffd5b630ea075bf60e21b5f5260045ffd5b63e6394a7760e01b5f5260045ffd5b63d92e233d60e01b5f5260045ffd5b34610152576020366003190112610152576004355f52600360205260ff600460405f20015460401c16600381101561027f57602090600160405191148152f35b3461015257602036600319011261015257610961611057565b5f546001600160a01b0316330361014357600180546001600160a01b0319166001600160a01b0390921691821790556040519081527f61f9152a2a03d3944672998d70cb93616a33b97600e8bb34779b240ca5b9de7d90602090a1005b34610152576040366003190112610152576004356024356001600160401b038111610152576109f19036906004016110a8565b5f549091906001600160a01b0316330361014357610a0e836112bc565b825f526003602052600260405f20016001600160401b03831161084557610a3f83610a398354611112565b836111f6565b5f601f8411600114610ac95791604091610a9185807f459157ba24c7ab9878b165ef465fa6ae2ab42bcd8445f576be378768b0c4730997965f91610abe575b508160011b915f199060031b1c19161790565b90555b82825193849260208452816020850152848401375f828201840152601f01601f19168101030190a2005b905084013589610a7e565b601f19841690825f5260205f20915f5b818110610b3957509160409391867f459157ba24c7ab9878b165ef465fa6ae2ab42bcd8445f576be378768b0c4730997969410610b20575b5050600184811b019055610a94565b8301355f19600387901b60f8161c191690558680610b11565b91926020600181928689013581550194019201610ad9565b346101525760403660031901126101525760043560243563ffffffff8116809103610152575f546001600160a01b0316330361014357610b90826112bc565b815f526003602052600660405f20019063ffffffff82541663ffffffff81146108c757600163ffffffff91011663ffffffff19835416178255815463ffffffff808260201c169116915f19830163ffffffff81116108c75763ffffffff16918281029281840414901517156108c75781018091116108c7578115610d8757825467ffffffff00000000191691900460201b67ffffffff000000001617815580549060ff63ffffffff831692847f9c82a2c0ba2e3ed9fc99b66d4970504b5aee703b6f7d573e82b0188035109c426040805187815263ffffffff8560201c166020820152a260401c168092606481101580610d74575b15610cea5750506004915b610c998161109e565b610ca28361109e565b8203610caa57005b81610cd87f4d1431e34c288d933eb3a30e883213bfe4e98c589349780871202c7937143e3c93602093611299565b60405190610ce58161109e565b8152a2005b603281101580610d61575b15610d055750506003915b610c90565b601481101580610d4e575b15610d1f575050600291610c90565b600590939193101580610d3b575b15610d005760019250610c90565b50610d458361109e565b60018310610d2d565b50610d588261109e565b60028210610d10565b50610d6b8261109e565b60038210610cf5565b50610d7e8261109e565b60048210610c85565b634e487b7160e01b5f52601260045260245ffd5b3461015257602036600319011261015257600435604051610dbb816110d5565b5f8152602081015f905260408101606090526060810160609052608081015f905260a081015f905260c081015f905260e081015f905261010081015f9052610120015f9052610e09816112bc565b5f52600360205260405f20604051610e20816110d5565b81546001600160a01b0316815260018201546020820190815291610e466002820161114a565b60408301908152610e596003830161114a565b6060840190815260048301549060808501936001600160401b038316855260a086019260401c60ff16610e8c90846111ea565b60058101549060c08701918252600601549260e087019263ffffffff851684526101008801948060201c63ffffffff16865260401c60ff1695610120890196610ed48161109e565b8752604051998a9960208b52600160a01b6001900390511660208b01525160408a0152516060890161014090526101608901610f0f9161106d565b9051888203601f190160808a0152610f27919061106d565b95516001600160401b031660a08801525160c08701610f4591611091565b5160e08601525163ffffffff166101008501525163ffffffff1661012084015251610f6f8161109e565b6101408301520390f35b34610152575f366003190112610152576001546040516001600160a01b039091168152602090f35b34610152576020366003190112610152576001600160a01b03610fc2611057565b165f526004602052602060405f2054604051908152f35b34610152576040366003190112610152575f5460043590602435906001600160a01b031633036101435760407fb2383e82269e758b9ec0fc961ac69cecc166570a12068c11b3f9cf29c8de9e8891611030846112bc565b5f8481526003602090815290839020600501805490839055835190815290810191909152a2005b600435906001600160a01b038216820361015257565b805180835260209291819084018484015e5f828201840152601f01601f1916010190565b90600382101561027f5752565b6005111561027f57565b9181601f84011215610152578235916001600160401b038311610152576020838186019501011161015257565b61014081019081106001600160401b0382111761084557604052565b90601f801991011681019081106001600160401b0382111761084557604052565b90600182811c92168015611140575b602083101461112c57565b634e487b7160e01b5f52602260045260245ffd5b91607f1691611121565b9060405191825f82549261115d84611112565b80845293600181169081156111c85750600114611184575b50611182925003836110f1565b565b90505f9291925260205f20905f915b8183106111ac575050906020611182928201015f611175565b6020919350806001915483858901015201910190918492611193565b90506020925061118294915060ff191682840152151560051b8201015f611175565b600382101561027f5752565b919091601f8311611207575b505050565b81831161121357505050565b5f5260205f206020601f830160051c921061124c575b81601f9101920160051c03905f5b82811015611202575f82820155600101611237565b5f9150611229565b9291926001600160401b038211610845576040519161127d601f8201601f1916602001846110f1565b829481845281830111610152578281602093845f960137010152565b906112a38161109e565b60ff60401b82549160401b169060ff60401b1916179055565b80159081156112dc575b506112cd57565b63e93ba22360e01b5f5260045ffd5b9050600254105f6112c656fea26469706673582212209adfdee18e522ae15b14a5af909cb11a3480408f91063639328070353d3ee5f064736f6c63430008210033","linkReferences":{}},"methodIdentifiers":{"agentCount()":"b7dc1284","getAgent(uint256)":"2de5aaf7","getAgentIdByAgentHash(bytes32)":"c4bfe358","getAgentIdByWallet(address)":"1e508238","getAgentProfile(uint256)":"f098a7ae","isActive(uint256)":"82afd23b","meritSBT()":"29b3c288","mintVerifierSBT(uint256)":"a7c00944","owner()":"8da5cb5b","reactivateAgent(uint256)":"fd610317","recordJobCompleted(uint256,uint32)":"489c9509","registerAgent(address,bytes32,string,string)":"8465dcef","setMeritSBT(address)":"7971939a","suspendAgent(uint256)":"aac596bc","updateMetadata(uint256,string)":"53c8388e","updateScore(uint256,uint256)":"09218e7b"},"id":68}