{"abi":[{"type":"constructor","inputs":[],"stateMutability":"nonpayable"},{"type":"function","name":"agentCount","inputs":[],"outputs":[{"name":"","type":"uint256","internalType":"uint256"}],"stateMutability":"view"},{"type":"function","name":"getAgent","inputs":[{"name":"agentId","type":"uint256","internalType":"uint256"}],"outputs":[{"name":"","type":"tuple","internalType":"struct AgentRegistry.Agent","components":[{"name":"wallet","type":"address","internalType":"address"},{"name":"did","type":"bytes32","internalType":"bytes32"},{"name":"metadataURI","type":"string","internalType":"string"},{"name":"registeredAt","type":"uint64","internalType":"uint64"},{"name":"status","type":"uint8","internalType":"enum AgentRegistry.AgentStatus"},{"name":"score","type":"uint256","internalType":"uint256"}]}],"stateMutability":"view"},{"type":"function","name":"getAgentIdByDID","inputs":[{"name":"did","type":"bytes32","internalType":"bytes32"}],"outputs":[{"name":"","type":"uint256","internalType":"uint256"}],"stateMutability":"view"},{"type":"function","name":"getAgentIdByWallet","inputs":[{"name":"wallet","type":"address","internalType":"address"}],"outputs":[{"name":"","type":"uint256","internalType":"uint256"}],"stateMutability":"view"},{"type":"function","name":"isActive","inputs":[{"name":"agentId","type":"uint256","internalType":"uint256"}],"outputs":[{"name":"","type":"bool","internalType":"bool"}],"stateMutability":"view"},{"type":"function","name":"owner","inputs":[],"outputs":[{"name":"","type":"address","internalType":"address"}],"stateMutability":"view"},{"type":"function","name":"reactivateAgent","inputs":[{"name":"agentId","type":"uint256","internalType":"uint256"}],"outputs":[],"stateMutability":"nonpayable"},{"type":"function","name":"registerAgent","inputs":[{"name":"wallet","type":"address","internalType":"address"},{"name":"did","type":"bytes32","internalType":"bytes32"},{"name":"metadataURI","type":"string","internalType":"string"}],"outputs":[{"name":"agentId","type":"uint256","internalType":"uint256"}],"stateMutability":"nonpayable"},{"type":"function","name":"suspendAgent","inputs":[{"name":"agentId","type":"uint256","internalType":"uint256"}],"outputs":[],"stateMutability":"nonpayable"},{"type":"function","name":"updateMetadata","inputs":[{"name":"agentId","type":"uint256","internalType":"uint256"},{"name":"metadataURI","type":"string","internalType":"string"}],"outputs":[],"stateMutability":"nonpayable"},{"type":"function","name":"updateScore","inputs":[{"name":"agentId","type":"uint256","internalType":"uint256"},{"name":"newScore","type":"uint256","internalType":"uint256"}],"outputs":[],"stateMutability":"nonpayable"},{"type":"event","name":"AgentReactivated","inputs":[{"name":"agentId","type":"uint256","indexed":true,"internalType":"uint256"}],"anonymous":false},{"type":"event","name":"AgentRegistered","inputs":[{"name":"agentId","type":"uint256","indexed":true,"internalType":"uint256"},{"name":"wallet","type":"address","indexed":true,"internalType":"address"},{"name":"did","type":"bytes32","indexed":true,"internalType":"bytes32"}],"anonymous":false},{"type":"event","name":"AgentSuspended","inputs":[{"name":"agentId","type":"uint256","indexed":true,"internalType":"uint256"}],"anonymous":false},{"type":"event","name":"MetadataUpdated","inputs":[{"name":"agentId","type":"uint256","indexed":true,"internalType":"uint256"},{"name":"metadataURI","type":"string","indexed":false,"internalType":"string"}],"anonymous":false},{"type":"event","name":"ScoreUpdated","inputs":[{"name":"agentId","type":"uint256","indexed":true,"internalType":"uint256"},{"name":"oldScore","type":"uint256","indexed":false,"internalType":"uint256"},{"name":"newScore","type":"uint256","indexed":false,"internalType":"uint256"}],"anonymous":false},{"type":"error","name":"AgentNotFound","inputs":[]},{"type":"error","name":"AlreadyRegistered","inputs":[]},{"type":"error","name":"InvalidDID","inputs":[]},{"type":"error","name":"NotOwner","inputs":[]},{"type":"error","name":"ZeroAddress","inputs":[]}],"bytecode":{"object":"0x6080604052348015600e575f5ffd5b50335f5f6101000a81548173ffffffffffffffffffffffffffffffffffffffff021916908373ffffffffffffffffffffffffffffffffffffffff16021790555061179d8061005b5f395ff3fe608060405234801561000f575f5ffd5b50600436106100a7575f3560e01c80637d63cec71161006f5780637d63cec71461017357806382afd23b146101a35780638da5cb5b146101d3578063aac596bc146101f1578063b7dc12841461020d578063fd6103171461022b576100a7565b806309218e7b146100ab5780631e508238146100c75780632de5aaf7146100f757806353c8388e146101275780637195802514610143575b5f5ffd5b6100c560048036038101906100c09190610da9565b610247565b005b6100e160048036038101906100dc9190610e41565b610345565b6040516100ee9190610e7b565b60405180910390f35b610111600480360381019061010c9190610e94565b61038b565b60405161011e9190611080565b60405180910390f35b610141600480360381019061013c9190611101565b610523565b005b61015d60048036038101906101589190611188565b610614565b60405161016a9190610e7b565b60405180910390f35b61018d600480360381019061018891906111b3565b61062e565b60405161019a9190610e7b565b60405180910390f35b6101bd60048036038101906101b89190610e94565b610a52565b6040516101ca919061123e565b60405180910390f35b6101db610aa3565b6040516101e89190611266565b60405180910390f35b61020b60048036038101906102069190610e94565b610ac7565b005b610215610bc1565b6040516102229190610e7b565b60405180910390f35b61024560048036038101906102409190610e94565b610bc7565b005b5f5f9054906101000a900473ffffffffffffffffffffffffffffffffffffffff1673ffffffffffffffffffffffffffffffffffffffff163373ffffffffffffffffffffffffffffffffffffffff16146102cc576040517f30cd747100000000000000000000000000000000000000000000000000000000815260040160405180910390fd5b6102d582610cc2565b5f60025f8481526020019081526020015f206004015490508160025f8581526020019081526020015f2060040181905550827fb2383e82269e758b9ec0fc961ac69cecc166570a12068c11b3f9cf29c8de9e88828460405161033892919061127f565b60405180910390a2505050565b5f60035f8373ffffffffffffffffffffffffffffffffffffffff1673ffffffffffffffffffffffffffffffffffffffff1681526020019081526020015f20549050919050565b610393610d0b565b61039c82610cc2565b60025f8381526020019081526020015f206040518060c00160405290815f82015f9054906101000a900473ffffffffffffffffffffffffffffffffffffffff1673ffffffffffffffffffffffffffffffffffffffff1673ffffffffffffffffffffffffffffffffffffffff16815260200160018201548152602001600282018054610426906112d3565b80601f0160208091040260200160405190810160405280929190818152602001828054610452906112d3565b801561049d5780601f106104745761010080835404028352916020019161049d565b820191905f5260205f20905b81548152906001019060200180831161048057829003601f168201915b50505050508152602001600382015f9054906101000a900467ffffffffffffffff1667ffffffffffffffff1667ffffffffffffffff1681526020016003820160089054906101000a900460ff1660028111156104fc576104fb610f78565b5b600281111561050e5761050d610f78565b5b81526020016004820154815250509050919050565b5f5f9054906101000a900473ffffffffffffffffffffffffffffffffffffffff1673ffffffffffffffffffffffffffffffffffffffff163373ffffffffffffffffffffffffffffffffffffffff16146105a8576040517f30cd747100000000000000000000000000000000000000000000000000000000815260040160405180910390fd5b6105b183610cc2565b818160025f8681526020019081526020015f2060020191826105d49291906114eb565b50827f459157ba24c7ab9878b165ef465fa6ae2ab42bcd8445f576be378768b0c473098383604051610607929190611602565b60405180910390a2505050565b5f60045f8381526020019081526020015f20549050919050565b5f5f5f9054906101000a900473ffffffffffffffffffffffffffffffffffffffff1673ffffffffffffffffffffffffffffffffffffffff163373ffffffffffffffffffffffffffffffffffffffff16146106b4576040517f30cd747100000000000000000000000000000000000000000000000000000000815260040160405180910390fd5b5f73ffffffffffffffffffffffffffffffffffffffff168573ffffffffffffffffffffffffffffffffffffffff1603610719576040517fd92e233d00000000000000000000000000000000000000000000000000000000815260040160405180910390fd5b5f5f1b8403610754576040517f1082e8ae00000000000000000000000000000000000000000000000000000000815260040160405180910390fd5b5f60035f8773ffffffffffffffffffffffffffffffffffffffff1673ffffffffffffffffffffffffffffffffffffffff1681526020019081526020015f2054146107ca576040517f3a81d6fc00000000000000000000000000000000000000000000000000000000815260040160405180910390fd5b5f60045f8681526020019081526020015f205414610814576040517f3a81d6fc00000000000000000000000000000000000000000000000000000000815260040160405180910390fd5b60015f815461082290611651565b91905081905590506040518060c001604052808673ffffffffffffffffffffffffffffffffffffffff16815260200185815260200184848080601f0160208091040260200160405190810160405280939291908181526020018383808284375f81840152601f19601f8201169050808301925050505050505081526020014267ffffffffffffffff168152602001600160028111156108c4576108c3610f78565b5b81526020015f81525060025f8381526020019081526020015f205f820151815f015f6101000a81548173ffffffffffffffffffffffffffffffffffffffff021916908373ffffffffffffffffffffffffffffffffffffffff1602179055506020820151816001015560408201518160020190816109419190611698565b506060820151816003015f6101000a81548167ffffffffffffffff021916908367ffffffffffffffff16021790555060808201518160030160086101000a81548160ff0219169083600281111561099b5761099a610f78565b5b021790555060a082015181600401559050508060035f8773ffffffffffffffffffffffffffffffffffffffff1673ffffffffffffffffffffffffffffffffffffffff1681526020019081526020015f20819055508060045f8681526020019081526020015f2081905550838573ffffffffffffffffffffffffffffffffffffffff16827f64b2bcb1d1d447eab176eec02936a817f1d7229df42745a482f9a535cd8c135460405160405180910390a4949350505050565b5f60016002811115610a6757610a66610f78565b5b60025f8481526020019081526020015f2060030160089054906101000a900460ff166002811115610a9b57610a9a610f78565b5b149050919050565b5f5f9054906101000a900473ffffffffffffffffffffffffffffffffffffffff1681565b5f5f9054906101000a900473ffffffffffffffffffffffffffffffffffffffff1673ffffffffffffffffffffffffffffffffffffffff163373ffffffffffffffffffffffffffffffffffffffff1614610b4c576040517f30cd747100000000000000000000000000000000000000000000000000000000815260040160405180910390fd5b610b5581610cc2565b6002805f8381526020019081526020015f2060030160086101000a81548160ff02191690836002811115610b8c57610b8b610f78565b5b0217905550807f7a517cb06849768fd8a97bc5f1be9c61e2f342a60cb6e6eaf64aaf11978a172a60405160405180910390a250565b60015481565b5f5f9054906101000a900473ffffffffffffffffffffffffffffffffffffffff1673ffffffffffffffffffffffffffffffffffffffff163373ffffffffffffffffffffffffffffffffffffffff1614610c4c576040517f30cd747100000000000000000000000000000000000000000000000000000000815260040160405180910390fd5b610c5581610cc2565b600160025f8381526020019081526020015f2060030160086101000a81548160ff02191690836002811115610c8d57610c8c610f78565b5b0217905550807f7cce21c1f4552995dccace889e9ad45febf59c654d3fd1d7ab0457fa1439aa2c60405160405180910390a250565b5f811480610cd1575060015481115b15610d08576040517fe93ba22300000000000000000000000000000000000000000000000000000000815260040160405180910390fd5b50565b6040518060c001604052805f73ffffffffffffffffffffffffffffffffffffffff1681526020015f8152602001606081526020015f67ffffffffffffffff1681526020015f6002811115610d6257610d61610f78565b5b81526020015f81525090565b5f5ffd5b5f5ffd5b5f819050919050565b610d8881610d76565b8114610d92575f5ffd5b50565b5f81359050610da381610d7f565b92915050565b5f5f60408385031215610dbf57610dbe610d6e565b5b5f610dcc85828601610d95565b9250506020610ddd85828601610d95565b9150509250929050565b5f73ffffffffffffffffffffffffffffffffffffffff82169050919050565b5f610e1082610de7565b9050919050565b610e2081610e06565b8114610e2a575f5ffd5b50565b5f81359050610e3b81610e17565b92915050565b5f60208284031215610e5657610e55610d6e565b5b5f610e6384828501610e2d565b91505092915050565b610e7581610d76565b82525050565b5f602082019050610e8e5f830184610e6c565b92915050565b5f60208284031215610ea957610ea8610d6e565b5b5f610eb684828501610d95565b91505092915050565b610ec881610e06565b82525050565b5f819050919050565b610ee081610ece565b82525050565b5f81519050919050565b5f82825260208201905092915050565b8281835e5f83830152505050565b5f601f19601f8301169050919050565b5f610f2882610ee6565b610f328185610ef0565b9350610f42818560208601610f00565b610f4b81610f0e565b840191505092915050565b5f67ffffffffffffffff82169050919050565b610f7281610f56565b82525050565b7f4e487b71000000000000000000000000000000000000000000000000000000005f52602160045260245ffd5b60038110610fb657610fb5610f78565b5b50565b5f819050610fc682610fa5565b919050565b5f610fd582610fb9565b9050919050565b610fe581610fcb565b82525050565b610ff481610d76565b82525050565b5f60c083015f83015161100f5f860182610ebf565b5060208301516110226020860182610ed7565b506040830151848203604086015261103a8282610f1e565b915050606083015161104f6060860182610f69565b5060808301516110626080860182610fdc565b5060a083015161107560a0860182610feb565b508091505092915050565b5f6020820190508181035f8301526110988184610ffa565b905092915050565b5f5ffd5b5f5ffd5b5f5ffd5b5f5f83601f8401126110c1576110c06110a0565b5b8235905067ffffffffffffffff8111156110de576110dd6110a4565b5b6020830191508360018202830111156110fa576110f96110a8565b5b9250929050565b5f5f5f6040848603121561111857611117610d6e565b5b5f61112586828701610d95565b935050602084013567ffffffffffffffff81111561114657611145610d72565b5b611152868287016110ac565b92509250509250925092565b61116781610ece565b8114611171575f5ffd5b50565b5f813590506111828161115e565b92915050565b5f6020828403121561119d5761119c610d6e565b5b5f6111aa84828501611174565b91505092915050565b5f5f5f5f606085870312156111cb576111ca610d6e565b5b5f6111d887828801610e2d565b94505060206111e987828801611174565b935050604085013567ffffffffffffffff81111561120a57611209610d72565b5b611216878288016110ac565b925092505092959194509250565b5f8115159050919050565b61123881611224565b82525050565b5f6020820190506112515f83018461122f565b92915050565b61126081610e06565b82525050565b5f6020820190506112795f830184611257565b92915050565b5f6040820190506112925f830185610e6c565b61129f6020830184610e6c565b9392505050565b7f4e487b71000000000000000000000000000000000000000000000000000000005f52602260045260245ffd5b5f60028204905060018216806112ea57607f821691505b6020821081036112fd576112fc6112a6565b5b50919050565b5f82905092915050565b7f4e487b71000000000000000000000000000000000000000000000000000000005f52604160045260245ffd5b5f819050815f5260205f209050919050565b5f6020601f8301049050919050565b5f82821b905092915050565b5f600883026113967fffffffffffffffffffffffffffffffffffffffffffffffffffffffffffffffff8261135b565b6113a0868361135b565b95508019841693508086168417925050509392505050565b5f819050919050565b5f6113db6113d66113d184610d76565b6113b8565b610d76565b9050919050565b5f819050919050565b6113f4836113c1565b611408611400826113e2565b848454611367565b825550505050565b5f5f905090565b61141f611410565b61142a8184846113eb565b505050565b5f5b82811015611450576114455f828401611417565b600181019050611431565b505050565b601f8211156114a357828211156114a25761146f8161133a565b6114788361134c565b6114818561134c565b602086101561148e575f90505b80830161149d8284038261142f565b505050505b5b505050565b5f82821c905092915050565b5f6114c35f19846008026114a8565b1980831691505092915050565b5f6114db83836114b4565b9150826002028217905092915050565b6114f58383611303565b67ffffffffffffffff81111561150e5761150d61130d565b5b61151882546112d3565b611523828285611455565b5f601f831160018114611550575f841561153e578287013590505b61154885826114d0565b8655506115af565b601f19841661155e8661133a565b5f5b8281101561158557848901358255600182019150602085019450602081019050611560565b868310156115a2578489013561159e601f8916826114b4565b8355505b6001600288020188555050505b50505050505050565b5f82825260208201905092915050565b828183375f83830152505050565b5f6115e183856115b8565b93506115ee8385846115c8565b6115f783610f0e565b840190509392505050565b5f6020820190508181035f83015261161b8184866115d6565b90509392505050565b7f4e487b71000000000000000000000000000000000000000000000000000000005f52601160045260245ffd5b5f61165b82610d76565b91507fffffffffffffffffffffffffffffffffffffffffffffffffffffffffffffffff820361168d5761168c611624565b5b600182019050919050565b6116a182610ee6565b67ffffffffffffffff8111156116ba576116b961130d565b5b6116c482546112d3565b6116cf828285611455565b5f60209050601f831160018114611700575f84156116ee578287015190505b6116f885826114d0565b86555061175f565b601f19841661170e8661133a565b5f5b8281101561173557848901518255600182019150602085019450602081019050611710565b86831015611752578489015161174e601f8916826114b4565b8355505b6001600288020188555050505b50505050505056fea264697066735822122019545d52e14b9e4cfba161648bc2744a60542e46b200e824c6946dd69e0e381c64736f6c63430008210033","linkReferences":{}},"methodIdentifiers":{"agentCount()":"b7dc1284","getAgent(uint256)":"2de5aaf7","getAgentIdByDID(bytes32)":"71958025","getAgentIdByWallet(address)":"1e508238","isActive(uint256)":"82afd23b","owner()":"8da5cb5b","reactivateAgent(uint256)":"fd610317","registerAgent(address,bytes32,string)":"7d63cec7","suspendAgent(uint256)":"aac596bc","updateMetadata(uint256,string)":"53c8388e","updateScore(uint256,uint256)":"09218e7b"},"id":19}